{
  "abi": [
    {
      "inputs": [],
      "name": "AlreadyRegistered",
      "type": "error"
    },
    {
      "inputs": [],
      "name": "CannotRevokeControlFromTLD",
      "type": "error"
    },
    {
      "inputs": [],
      "name": "ERC721AlreadyMinted",
      "type": "error"
    },
    {
      "inputs": [],
      "name": "ERC721ApproveToOwner",
      "type": "error"
    },
    {
      "inputs": [],
      "name": "ERC721InvalidOwnerAddress0",
      "type": "error"
    },
    {
      "inputs": [],
      "name": "ERC721InvalidTokenId",
      "type": "error"
    },
    {
      "inputs": [],
      "name": "ERC721MintToAddress0",
      "type": "error"
    },
    {
      "inputs": [],
      "name": "ERC721NotOwnerOrApproved",
      "type": "error"
    },
    {
      "inputs": [],
      "name": "ERC721TransferFromIncorrectOwner",
      "type": "error"
    },
    {
      "inputs": [],
      "name": "ERC721TransferToAddress0",
      "type": "error"
    },
    {
      "inputs": [],
      "name": "ERC721TransferToNonReceiver",
      "type": "error"
    },
    {
      "inputs": [],
      "name": "NotAuthorized",
      "type": "error"
    },
    {
      "inputs": [],
      "name": "NotAuthorizedToMintName",
      "type": "error"
    },
    {
      "inputs": [],
      "name": "NotDotUqTLD",
      "type": "error"
    },
    {
      "inputs": [],
      "name": "KNSRegistryOnly",
      "type": "error"
    },
    {
      "inputs": [],
      "name": "SecondLevelDomainNot9CharactersOrMore",
      "type": "error"
    },
    {
      "inputs": [],
      "name": "TLDWebmasterApproveToCaller",
      "type": "error"
    },
    {
      "anonymous": false,
      "inputs": [
        {
          "indexed": false,
          "internalType": "address",
          "name": "previousAdmin",
          "type": "address"
        },
        {
          "indexed": false,
          "internalType": "address",
          "name": "newAdmin",
          "type": "address"
        }
      ],
      "name": "AdminChanged",
      "type": "event"
    },
    {
      "anonymous": false,
      "inputs": [
        {
          "indexed": true,
          "internalType": "address",
          "name": "owner",
          "type": "address"
        },
        {
          "indexed": true,
          "internalType": "address",
          "name": "approved",
          "type": "address"
        },
        {
          "indexed": true,
          "internalType": "uint256",
          "name": "tokenId",
          "type": "uint256"
        }
      ],
      "name": "Approval",
      "type": "event"
    },
    {
      "anonymous": false,
      "inputs": [
        {
          "indexed": true,
          "internalType": "address",
          "name": "owner",
          "type": "address"
        },
        {
          "indexed": true,
          "internalType": "address",
          "name": "operator",
          "type": "address"
        },
        {
          "indexed": false,
          "internalType": "bool",
          "name": "approved",
          "type": "bool"
        }
      ],
      "name": "ApprovalForAll",
      "type": "event"
    },
    {
      "anonymous": false,
      "inputs": [
        {
          "indexed": true,
          "internalType": "address",
          "name": "beacon",
          "type": "address"
        }
      ],
      "name": "BeaconUpgraded",
      "type": "event"
    },
    {
      "anonymous": false,
      "inputs": [
        {
          "indexed": false,
          "internalType": "uint256",
          "name": "child",
          "type": "uint256"
        },
        {
          "indexed": false,
          "internalType": "uint256",
          "name": "parent",
          "type": "uint256"
        },
        {
          "indexed": false,
          "internalType": "address",
          "name": "sender",
          "type": "address"
        }
      ],
      "name": "ControlRevoked",
      "type": "event"
    },
    {
      "anonymous": false,
      "inputs": [
        {
          "indexed": false,
          "internalType": "uint8",
          "name": "version",
          "type": "uint8"
        }
      ],
      "name": "Initialized",
      "type": "event"
    },
    {
      "anonymous": false,
      "inputs": [
        {
          "indexed": true,
          "internalType": "address",
          "name": "previousOwner",
          "type": "address"
        },
        {
          "indexed": true,
          "internalType": "address",
          "name": "newOwner",
          "type": "address"
        }
      ],
      "name": "OwnershipTransferred",
      "type": "event"
    },
    {
      "anonymous": false,
      "inputs": [
        {
          "indexed": true,
          "internalType": "address",
          "name": "from",
          "type": "address"
        },
        {
          "indexed": true,
          "internalType": "address",
          "name": "to",
          "type": "address"
        },
        {
          "indexed": true,
          "internalType": "uint256",
          "name": "tokenId",
          "type": "uint256"
        }
      ],
      "name": "Transfer",
      "type": "event"
    },
    {
      "anonymous": false,
      "inputs": [
        {
          "indexed": true,
          "internalType": "address",
          "name": "implementation",
          "type": "address"
        }
      ],
      "name": "Upgraded",
      "type": "event"
    },
    {
      "anonymous": false,
      "inputs": [
        {
          "indexed": true,
          "internalType": "address",
          "name": "owner",
          "type": "address"
        },
        {
          "indexed": true,
          "internalType": "address",
          "name": "webmaster",
          "type": "address"
        },
        {
          "indexed": false,
          "internalType": "bool",
          "name": "approved",
          "type": "bool"
        }
      ],
      "name": "Webmaster",
      "type": "event"
    },
    {
      "inputs": [],
      "name": "TLD_DNS_WIRE",
      "outputs": [
        {
          "internalType": "bytes",
          "name": "",
          "type": "bytes"
        }
      ],
      "stateMutability": "view",
      "type": "function"
    },
    {
      "inputs": [],
      "name": "TLD_HASH",
      "outputs": [
        {
          "internalType": "bytes32",
          "name": "",
          "type": "bytes32"
        }
      ],
      "stateMutability": "view",
      "type": "function"
    },
    {
      "inputs": [],
      "name": "TLD_LABEL",
      "outputs": [
        {
          "internalType": "bytes32",
          "name": "",
          "type": "bytes32"
        }
      ],
      "stateMutability": "view",
      "type": "function"
    },
    {
      "inputs": [
        {
          "internalType": "bytes",
          "name": "_fqdn",
          "type": "bytes"
        },
        {
          "internalType": "bytes32",
          "name": "_tldHash",
          "type": "bytes32"
        }
      ],
      "name": "__initTLDRegistration",
      "outputs": [],
      "stateMutability": "nonpayable",
      "type": "function"
    },
    {
      "inputs": [
        {
          "internalType": "address",
          "name": "_owner",
          "type": "address"
        },
        {
          "internalType": "address",
          "name": "_operator",
          "type": "address"
        },
        {
          "internalType": "bool",
          "name": "_approved",
          "type": "bool"
        }
      ],
      "name": "_setApprovalForAll",
      "outputs": [],
      "stateMutability": "nonpayable",
      "type": "function"
    },
    {
      "inputs": [
        {
          "internalType": "address",
          "name": "to",
          "type": "address"
        },
        {
          "internalType": "uint256",
          "name": "node",
          "type": "uint256"
        }
      ],
      "name": "approve",
      "outputs": [],
      "stateMutability": "nonpayable",
      "type": "function"
    },
    {
      "inputs": [
        {
          "internalType": "uint256",
          "name": "_nodeId",
          "type": "uint256"
        },
        {
          "internalType": "address",
          "name": "_sender",
          "type": "address"
        }
      ],
      "name": "auth",
      "outputs": [
        {
          "internalType": "bool",
          "name": "authed_",
          "type": "bool"
        }
      ],
      "stateMutability": "view",
      "type": "function"
    },
    {
      "inputs": [
        {
          "internalType": "bytes32",
          "name": "_nodeId",
          "type": "bytes32"
        },
        {
          "internalType": "address",
          "name": "_sender",
          "type": "address"
        }
      ],
      "name": "auth",
      "outputs": [
        {
          "internalType": "bool",
          "name": "",
          "type": "bool"
        }
      ],
      "stateMutability": "view",
      "type": "function"
    },
    {
      "inputs": [
        {
          "internalType": "address",
          "name": "_owner",
          "type": "address"
        }
      ],
      "name": "balanceOf",
      "outputs": [
        {
          "internalType": "uint256",
          "name": "",
          "type": "uint256"
        }
      ],
      "stateMutability": "view",
      "type": "function"
    },
    {
      "inputs": [
        {
          "internalType": "uint256",
          "name": "_node",
          "type": "uint256"
        }
      ],
      "name": "getApproved",
      "outputs": [
        {
          "internalType": "address",
          "name": "",
          "type": "address"
        }
      ],
      "stateMutability": "view",
      "type": "function"
    },
    {
      "inputs": [],
      "name": "getInitializedVersion",
      "outputs": [
        {
          "internalType": "uint8",
          "name": "",
          "type": "uint8"
        }
      ],
      "stateMutability": "view",
      "type": "function"
    },
    {
      "inputs": [
        {
          "internalType": "address",
          "name": "_kns",
          "type": "address"
        }
      ],
      "name": "initialize",
      "outputs": [],
      "stateMutability": "nonpayable",
      "type": "function"
    },
    {
      "inputs": [
        {
          "internalType": "address",
          "name": "_owner",
          "type": "address"
        },
        {
          "internalType": "address",
          "name": "_operator",
          "type": "address"
        }
      ],
      "name": "isApprovedForAll",
      "outputs": [
        {
          "internalType": "bool",
          "name": "",
          "type": "bool"
        }
      ],
      "stateMutability": "view",
      "type": "function"
    },
    {
      "inputs": [
        {
          "internalType": "address",
          "name": "_webmaster",
          "type": "address"
        },
        {
          "internalType": "uint256",
          "name": "_node",
          "type": "uint256"
        }
      ],
      "name": "isWebmaster",
      "outputs": [
        {
          "internalType": "bool",
          "name": "",
          "type": "bool"
        }
      ],
      "stateMutability": "view",
      "type": "function"
    },
    {
      "inputs": [
        {
          "internalType": "address",
          "name": "_owner",
          "type": "address"
        },
        {
          "internalType": "address",
          "name": "_webmaster",
          "type": "address"
        }
      ],
      "name": "isWebmaster",
      "outputs": [
        {
          "internalType": "bool",
          "name": "",
          "type": "bool"
        }
      ],
      "stateMutability": "view",
      "type": "function"
    },
    {
      "inputs": [],
      "name": "name",
      "outputs": [
        {
          "internalType": "string",
          "name": "",
          "type": "string"
        }
      ],
      "stateMutability": "view",
      "type": "function"
    },
    {
      "inputs": [],
      "name": "owner",
      "outputs": [
        {
          "internalType": "address",
          "name": "",
          "type": "address"
        }
      ],
      "stateMutability": "view",
      "type": "function"
    },
    {
      "inputs": [
        {
          "internalType": "uint256",
          "name": "node",
          "type": "uint256"
        }
      ],
      "name": "ownerOf",
      "outputs": [
        {
          "internalType": "address",
          "name": "",
          "type": "address"
        }
      ],
      "stateMutability": "view",
      "type": "function"
    },
    {
      "inputs": [
        {
          "internalType": "uint256",
          "name": "",
          "type": "uint256"
        }
      ],
      "name": "parents",
      "outputs": [
        {
          "internalType": "uint256",
          "name": "",
          "type": "uint256"
        }
      ],
      "stateMutability": "view",
      "type": "function"
    },
    {
      "inputs": [],
      "name": "proxiableUUID",
      "outputs": [
        {
          "internalType": "bytes32",
          "name": "",
          "type": "bytes32"
        }
      ],
      "stateMutability": "view",
      "type": "function"
    },
    {
      "inputs": [],
      "name": "kns",
      "outputs": [
        {
          "internalType": "contract IKNSRegistryResolver",
          "name": "",
          "type": "address"
        }
      ],
      "stateMutability": "view",
      "type": "function"
    },
    {
      "inputs": [
        {
          "internalType": "bytes",
          "name": "_name",
          "type": "bytes"
        },
        {
          "internalType": "address",
          "name": "_to",
          "type": "address"
        },
        {
          "internalType": "bytes[]",
          "name": "_data",
          "type": "bytes[]"
        }
      ],
      "name": "register",
      "outputs": [
        {
          "internalType": "uint256",
          "name": "nodeId_",
          "type": "uint256"
        }
      ],
      "stateMutability": "payable",
      "type": "function"
    },
    {
      "inputs": [],
      "name": "renounceOwnership",
      "outputs": [],
      "stateMutability": "nonpayable",
      "type": "function"
    },
    {
      "inputs": [
        {
          "internalType": "bytes",
          "name": "_name",
          "type": "bytes"
        }
      ],
      "name": "revokeControlOverSubdomain",
      "outputs": [],
      "stateMutability": "nonpayable",
      "type": "function"
    },
    {
      "inputs": [
        {
          "internalType": "address",
          "name": "from",
          "type": "address"
        },
        {
          "internalType": "address",
          "name": "to",
          "type": "address"
        },
        {
          "internalType": "uint256",
          "name": "node",
          "type": "uint256"
        }
      ],
      "name": "safeTransferFrom",
      "outputs": [],
      "stateMutability": "nonpayable",
      "type": "function"
    },
    {
      "inputs": [
        {
          "internalType": "address",
          "name": "from",
          "type": "address"
        },
        {
          "internalType": "address",
          "name": "to",
          "type": "address"
        },
        {
          "internalType": "uint256",
          "name": "node",
          "type": "uint256"
        },
        {
          "internalType": "bytes",
          "name": "data",
          "type": "bytes"
        }
      ],
      "name": "safeTransferFrom",
      "outputs": [],
      "stateMutability": "nonpayable",
      "type": "function"
    },
    {
      "inputs": [
        {
          "internalType": "address",
          "name": "_operator",
          "type": "address"
        },
        {
          "internalType": "bool",
          "name": "_approved",
          "type": "bool"
        }
      ],
      "name": "setApprovalForAll",
      "outputs": [],
      "stateMutability": "nonpayable",
      "type": "function"
    },
    {
      "inputs": [
        {
          "internalType": "address",
          "name": "_webmaster",
          "type": "address"
        },
        {
          "internalType": "bool",
          "name": "_approved",
          "type": "bool"
        }
      ],
      "name": "setWebmaster",
      "outputs": [],
      "stateMutability": "nonpayable",
      "type": "function"
    },
    {
      "inputs": [
        {
          "internalType": "bytes4",
          "name": "interfaceId",
          "type": "bytes4"
        }
      ],
      "name": "supportsInterface",
      "outputs": [
        {
          "internalType": "bool",
          "name": "",
          "type": "bool"
        }
      ],
      "stateMutability": "view",
      "type": "function"
    },
    {
      "inputs": [],
      "name": "symbol",
      "outputs": [
        {
          "internalType": "string",
          "name": "",
          "type": "string"
        }
      ],
      "stateMutability": "view",
      "type": "function"
    },
    {
      "inputs": [
        {
          "internalType": "address",
          "name": "from",
          "type": "address"
        },
        {
          "internalType": "address",
          "name": "to",
          "type": "address"
        },
        {
          "internalType": "uint256",
          "name": "node",
          "type": "uint256"
        }
      ],
      "name": "transferFrom",
      "outputs": [],
      "stateMutability": "nonpayable",
      "type": "function"
    },
    {
      "inputs": [
        {
          "internalType": "address",
          "name": "newOwner",
          "type": "address"
        }
      ],
      "name": "transferOwnership",
      "outputs": [],
      "stateMutability": "nonpayable",
      "type": "function"
    },
    {
      "inputs": [
        {
          "internalType": "address",
          "name": "newImplementation",
          "type": "address"
        }
      ],
      "name": "upgradeTo",
      "outputs": [],
      "stateMutability": "nonpayable",
      "type": "function"
    },
    {
      "inputs": [
        {
          "internalType": "address",
          "name": "newImplementation",
          "type": "address"
        },
        {
          "internalType": "bytes",
          "name": "data",
          "type": "bytes"
        }
      ],
      "name": "upgradeToAndCall",
      "outputs": [],
      "stateMutability": "payable",
      "type": "function"
    }
  ],
  "bytecode": {
    "object": "0x60a06040523060805234801561001457600080fd5b50608051612b6361004c6000396000818161095e015281816109a701528181610a6101528181610aa10152610b470152612b636000f3fe6080604052600436106101f95760003560e01c8063715018a61161010d578063b88d4fde116100a0578063d123f99a1161006f578063d123f99a146105c3578063d314c607146105d6578063d5c457141461061f578063e985e9c514610635578063f2fde38b1461065557600080fd5b8063b88d4fde1461054d578063c1ea25f11461056d578063c4d66de81461058d578063d1131c72146105ad57600080fd5b80638da5cb5b116100dc5780638da5cb5b146104d357806395d89b41146104f1578063a22cb46514610506578063b3c650151461052657600080fd5b8063715018a614610451578063819eb62514610466578063898572a6146104865780638c4e3f32146104b357600080fd5b8063303bc8ac11610190578063516a166a1161015f578063516a166a146103ae57806352d1902d146103ce5780635864c817146103f15780636352211e1461041157806370a082311461043157600080fd5b8063303bc8ac146103465780633659cfe61461035b57806342842e0e1461037b5780634f1ef2861461039b57600080fd5b806312403916116101cc57806312403916146102c65780631492017b146102e6578063169e0dde1461030657806323b872dd1461032657600080fd5b806301ffc9a7146101fe57806306fdde0314610234578063081812fc14610256578063095ea7b3146102a4575b600080fd5b34801561020a57600080fd5b5061021f61021936600461210e565b50600090565b60405190151581526020015b60405180910390f35b34801561024057600080fd5b50610249610675565b60405161022b919061217b565b34801561026257600080fd5b5061028c61027136600461218e565b6000908152600860205260409020546001600160a01b031690565b6040516001600160a01b03909116815260200161022b565b3480156102b057600080fd5b506102c46102bf3660046121c3565b610707565b005b3480156102d257600080fd5b506102c46102e136600461222f565b610791565b3480156102f257600080fd5b5061021f61030136600461227b565b61083d565b34801561031257600080fd5b5060005461028c906001600160a01b031681565b34801561033257600080fd5b506102c46103413660046122a7565b610894565b34801561035257600080fd5b506102496108c6565b34801561036757600080fd5b506102c46103763660046122e3565b610954565b34801561038757600080fd5b506102c46103963660046122a7565b610a3c565b6102c46103a93660046123c3565b610a57565b3480156103ba57600080fd5b5061021f6103c936600461227b565b610b27565b3480156103da57600080fd5b506103e3610b3a565b60405190815260200161022b565b3480156103fd57600080fd5b506102c461040c366004612407565b610bed565b34801561041d57600080fd5b5061028c61042c36600461218e565b610cbe565b34801561043d57600080fd5b506103e361044c3660046122e3565b610cf3565b34801561045d57600080fd5b506102c4610d38565b34801561047257600080fd5b506102c461048136600461244c565b610d4c565b34801561049257600080fd5b506103e36104a136600461218e565b60d46020526000908152604090205481565b3480156104bf57600080fd5b506102c46104ce366004612476565b610d57565b3480156104df57600080fd5b50603e546001600160a01b031661028c565b3480156104fd57600080fd5b50610249610df7565b34801561051257600080fd5b506102c461052136600461244c565b610e06565b34801561053257600080fd5b5061053b610e11565b60405160ff909116815260200161022b565b34801561055957600080fd5b506102c46105683660046124b9565b610e24565b34801561057957600080fd5b5061021f6105883660046121c3565b610e57565b34801561059957600080fd5b506102c46105a83660046122e3565b610e63565b3480156105b957600080fd5b506103e360015481565b6103e36105d1366004612521565b610fd7565b3480156105e257600080fd5b5061021f6105f13660046125d2565b6001600160a01b039182166000908152600a6020908152604080832093909416825291909152205460ff1690565b34801561062b57600080fd5b506103e360025481565b34801561064157600080fd5b5061021f6106503660046125d2565b611003565b34801561066157600080fd5b506102c46106703660046122e3565b611031565b606060048054610684906125fc565b80601f01602080910402602001604051908101604052809291908181526020018280546106b0906125fc565b80156106fd5780601f106106d2576101008083540402835291602001916106fd565b820191906000526020600020905b8154815290600101906020018083116106e057829003601f168201915b5050505050905090565b600061071282610cbe565b9050806001600160a01b0316836001600160a01b0316036107465760405163091fbd5360e01b815260040160405180910390fd5b336001600160a01b0382161480159061076457506107648133611003565b15610782576040516307e8a24360e21b815260040160405180910390fd5b61078c83836110a7565b505050565b600254156107b257604051630ea075bf60e21b815260040160405180910390fd5b6000546001600160a01b031633146107dd5760405163367ae3b760e11b815260040160405180910390fd5b600281905560036107ef838583612686565b50610834600084848080601f01602080910402602001604051908101604052809392919081815260200183838082843760009201919091525092939250506111159050565b50600155505050565b60005b8015801561085057506002548314155b1561088e5761085f838361121c565b90508061088e5761086f8361124a565b1561088a57600092835260d460205260409092205491610840565b5060005b92915050565b61089e3382611262565b6108bb576040516307e8a24360e21b815260040160405180910390fd5b61078c8383836112c1565b600380546108d3906125fc565b80601f01602080910402602001604051908101604052809291908181526020018280546108ff906125fc565b801561094c5780601f106109215761010080835404028352916020019161094c565b820191906000526020600020905b81548152906001019060200180831161092f57829003601f168201915b505050505081565b6001600160a01b037f00000000000000000000000000000000000000000000000000000000000000001630036109a55760405162461bcd60e51b815260040161099c90612747565b60405180910390fd5b7f00000000000000000000000000000000000000000000000000000000000000006001600160a01b03166109ee600080516020612ae7833981519152546001600160a01b031690565b6001600160a01b031614610a145760405162461bcd60e51b815260040161099c90612793565b610a1d816113ff565b60408051600080825260208201909252610a3991839190611407565b50565b61078c83838360405180602001604052806000815250610e24565b6001600160a01b037f0000000000000000000000000000000000000000000000000000000000000000163003610a9f5760405162461bcd60e51b815260040161099c90612747565b7f00000000000000000000000000000000000000000000000000000000000000006001600160a01b0316610ae8600080516020612ae7833981519152546001600160a01b031690565b6001600160a01b031614610b0e5760405162461bcd60e51b815260040161099c90612793565b610b17826113ff565b610b2382826001611407565b5050565b6000610b33838361083d565b9392505050565b6000306001600160a01b037f00000000000000000000000000000000000000000000000000000000000000001614610bda5760405162461bcd60e51b815260206004820152603860248201527f555550535570677261646561626c653a206d757374206e6f742062652063616c60448201527f6c6564207468726f7567682064656c656761746563616c6c0000000000000000606482015260840161099c565b50600080516020612ae783398151915290565b6000806000610bfb84611572565b925092509250808203610c215760405163abddc77160e01b815260040160405180910390fd5b610c2b8233610b27565b15610c9f5760006001610c3d856115d2565b179050610c598185600090815260066020526040902081905590565b506040805185815260208101859052338183015290517f7de9cdc5b55386112f86114d6e841bde7e78203bea81a912271231dffde1be769181900360600190a150610cb8565b60405163ea8e4eb560e01b815260040160405180910390fd5b50505050565b600080610cca836115e6565b90506001600160a01b03811661088e5760405163089ba7e160e41b815260040160405180910390fd5b60006001600160a01b038216610d1c57604051633d6932c760e21b815260040160405180910390fd5b506001600160a01b031660009081526007602052604090205490565b610d406115fd565b610d4a6000611657565b565b610b233383836116a9565b816001600160a01b0316836001600160a01b031603610d895760405163091fbd5360e01b815260040160405180910390fd5b6001600160a01b03838116600081815260096020908152604080832094871680845294825291829020805460ff191686151590811790915591519182527f17307eab39ab6107e8899845ad3d59bd9653f200f220920489ca2b5937696c3191015b60405180910390a3505050565b606060058054610684906125fc565b610b23338383610d57565b6000610e1f600b5460ff1690565b905090565b610e2e3383611262565b610e4b576040516307e8a24360e21b815260040160405180910390fd5b610cb884848484611740565b6000610b338383611774565b600b54610100900460ff1615808015610e835750600b54600160ff909116105b80610e9d5750303b158015610e9d5750600b5460ff166001145b610f005760405162461bcd60e51b815260206004820152602e60248201527f496e697469616c697a61626c653a20636f6e747261637420697320616c72656160448201526d191e481a5b9a5d1a585b1a5e995960921b606482015260840161099c565b600b805460ff191660011790558015610f2357600b805461ff0019166101001790555b60408051808201825260128152715571626172204e616d65205365727669636560701b6020918201528151808301909252600482526355514e5360e01b910152600080546001600160a01b0319166001600160a01b038416179055610f866117b8565b610f8e6117df565b8015610b2357600b805461ff0019169055604051600181527f7f26b83ff96e1f2b6a682f133852f6798a09c465da95921460cefb38474024989060200160405180910390a15050565b600080610fe7878760003361180e565b509050610ff88787878488886119b9565b979650505050505050565b6001600160a01b03918216600090815260096020908152604080832093909416825291909152205460ff1690565b6110396115fd565b6001600160a01b03811661109e5760405162461bcd60e51b815260206004820152602660248201527f4f776e61626c653a206e6577206f776e657220697320746865207a65726f206160448201526564647265737360d01b606482015260840161099c565b610a3981611657565b600081815260086020526040902080546001600160a01b0319166001600160a01b03841690811790915581906110dc826115e6565b6001600160a01b03167f8c5be1e5ebec7d5bd14f71427d1e84f3dd0314c0f7b2291e5b200ac8c7c3b92560405160405180910390a45050565b600080835183106111685760405162461bcd60e51b815260206004820152601e60248201527f726561644c6162656c3a20496e646578206f7574206f6620626f756e64730000604482015260640161099c565b600084848151811061117c5761117c6127df565b016020015160f81c9050604081106111d65760405162461bcd60e51b815260206004820152601960248201527f726561644c6162656c3a204c6162656c20746f6f206c6f6e6700000000000000604482015260640161099c565b80156111f8576111f1856111eb86600161280b565b83611b1a565b92506111fd565b600092505b611207818561280b565b61121290600161280b565b9150509250929050565b60006001600160a01b03821630148061123a575061123a8284611774565b80610b335750610b338284611262565b60008181526006602052604081205461088e90611b3e565b60008061126e836115e6565b9050806001600160a01b0316846001600160a01b0316148061129557506112958185611003565b806112b957506000838152600860205260409020546001600160a01b038581169116145b949350505050565b6001600160a01b0382166000036112eb576040516328aad33f60e21b815260040160405180910390fd5b826001600160a01b03166112fe826115e6565b6001600160a01b0316146113255760405163e146af6f60e01b815260040160405180910390fd5b826001600160a01b0316611338826115e6565b6001600160a01b03161461135f5760405163e146af6f60e01b815260040160405180910390fd5b600081815260086020908152604080832080546001600160a01b03191690556001600160a01b0386811680855260078452828520805460001901905590861680855282852080546001019055858552600690935281842080546001600160601b0316606088901b6001600160601b031916179055905184937fddf252ad1be2c89b69c2b068fc378daa952ba7f163c4a11628f55a4df523b3ef91a4505050565b610a396115fd565b7f4910fdfa16fed3260ed0e7147f7cc6da11a60208b5b9406d12a635614ffd91435460ff161561143a5761078c83611b53565b826001600160a01b03166352d1902d6040518163ffffffff1660e01b8152600401602060405180830381865afa925050508015611494575060408051601f3d908101601f191682019092526114919181019061281e565b60015b6114f75760405162461bcd60e51b815260206004820152602e60248201527f45524331393637557067726164653a206e657720696d706c656d656e7461746960448201526d6f6e206973206e6f74205555505360901b606482015260840161099c565b600080516020612ae783398151915281146115665760405162461bcd60e51b815260206004820152602960248201527f45524331393637557067726164653a20756e737570706f727465642070726f786044820152681a58589b195555525160ba1b606482015260840161099c565b5061078c838383611bef565b600080600080600061158386611c14565b915091506000806115948884611c2b565b6040805160208101849052908101879052919350915060600160408051808303601f1901815291905280516020909101209891975095509350505050565b60008181526006602052604081205461088e565b60008181526006602052604081205460601c61088e565b603e546001600160a01b03163314610d4a5760405162461bcd60e51b815260206004820181905260248201527f4f776e61626c653a2063616c6c6572206973206e6f7420746865206f776e6572604482015260640161099c565b603e80546001600160a01b038381166001600160a01b0319831681179093556040519116919082907f8be0079c531659141344cd1fd0a4f28419497f9722a3daafe3b4186f6b6457e090600090a35050565b816001600160a01b0316836001600160a01b0316036116db57604051637417c83160e11b815260040160405180910390fd5b6001600160a01b038381166000818152600a6020908152604080832094871680845294825291829020805460ff191686151590811790915591519182527fadc620d6f66bc2f5355112336dd7957aecdc5480a6d6e771c356503869756c449101610dea565b61174b8484846112c1565b61175784848484611d2f565b610cb857604051633a3614b760e01b815260040160405180910390fd5b6000600a6000611783846115e6565b6001600160a01b039081168252602080830193909352604091820160009081209187168152925290205460ff16905092915050565b600b54610100900460ff16610d4a5760405162461bcd60e51b815260040161099c90612837565b600b54610100900460ff166118065760405162461bcd60e51b815260040161099c90612837565b610d4a611e31565b6000806000806118578689898080601f01602080910402602001604051908101604052809392919081815260200183838082843760009201919091525092939250506111159050565b9092509050611867600188612882565b810361189f57600154821461188f57604051631b431a5160e11b815260040160405180910390fd5b60025460019350935050506119b0565b6000806118ae8a8a858a61180e565b91509150600254821480156118cd575060096118ca8985612882565b11155b156118eb5760405163cecd40e560e01b815260040160405180910390fd5b60408051602080820185905281830187905282518083038401815260609092018352815191810191909120600081815260d490925291812054900361193c57600081815260d4602052604090208390555b88156119735761194b8161124a565b61195457600091505b8161196657611963818961121c565b91505b955093506119b092505050565b8161199157604051632b8839a960e01b815260040160405180910390fd5b60025483146119a15760006119a4565b60015b60019650965050505050505b94509492505050565b60008054604051633255528360e21b815282916001600160a01b03169063c9554a0c906119ec908b908b906004016128be565b6020604051808303816000875af1158015611a0b573d6000803e3d6000fd5b505050506040513d601f19601f82011682018060405250810190611a2f919061281e565b9150819050611a3e8682611e61565b611a8b611a7786611a5b8560009081526006602052604090205490565b6001600160601b031981166001600160601b0383161792915050565b600084815260066020526040902081905590565b508215611b0f5760005460405163e32954eb60e01b81526001600160a01b039091169063e32954eb90611ac6908490889088906004016128d2565b6000604051808303816000875af1158015611ae5573d6000803e3d6000fd5b505050506040513d6000823e601f3d908101601f19168201604052611b0d919081019061297b565b505b509695505050505050565b8251600090611b29838561280b565b1115611b3457600080fd5b5091016020012090565b600081158061088e5750506001908116141590565b6001600160a01b0381163b611bc05760405162461bcd60e51b815260206004820152602d60248201527f455243313936373a206e657720696d706c656d656e746174696f6e206973206e60448201526c1bdd08184818dbdb9d1c9858dd609a1b606482015260840161099c565b600080516020612ae783398151915280546001600160a01b0319166001600160a01b0392909216919091179055565b611bf883611e7b565b600082511180611c055750805b1561078c57610cb88383611ebb565b600080611c22836000611115565b91509150915091565b600080600080611c3b8686611115565b909250905081611cb05760018651611c539190612882565b8514611ca15760405162461bcd60e51b815260206004820152601d60248201527f6e616d65686173683a204a756e6b20617420656e64206f66206e616d65000000604482015260640161099c565b5060009250829150611d289050565b600080611cbd8884611c2b565b909250905080611cf45760408051600060208201529081018590526060016040516020818303038152906040528051906020012090505b6040805160208101849052908101859052606001604051602081830303815290604052805190602001208195509550505050505b9250929050565b60006001600160a01b0384163b15611e2657604051630a85bd0160e11b81526001600160a01b0385169063150b7a0290611d73903390899088908890600401612a7a565b6020604051808303816000875af1925050508015611dae575060408051601f3d908101601f19168201909252611dab91810190612aad565b60015b611e0c573d808015611ddc576040519150601f19603f3d011682016040523d82523d6000602084013e611de1565b606091505b508051600003611e0457604051633a3614b760e01b815260040160405180910390fd5b805181602001fd5b6001600160e01b031916630a85bd0160e11b1490506112b9565b506001949350505050565b600b54610100900460ff16611e585760405162461bcd60e51b815260040161099c90612837565b610d4a33611657565b610b23828260405180602001604052806000815250611ee0565b611e8481611b53565b6040516001600160a01b038216907fbc7cd75a20ee27fd9adebab32041f755214dbc6bffa90cc0225b39da2e5c2d3b90600090a250565b6060610b338383604051806060016040528060278152602001612b0760279139611f14565b611eea8383611f8c565b611ef76000848484611d2f565b61078c57604051633a3614b760e01b815260040160405180910390fd5b6060600080856001600160a01b031685604051611f319190612aca565b600060405180830381855af49150503d8060008114611f6c576040519150601f19603f3d011682016040523d82523d6000602084013e611f71565b606091505b5091509150611f828683838761205a565b9695505050505050565b6001600160a01b038216611fb35760405163507508af60e11b815260040160405180910390fd5b60008181526006602052604090205415611fe0576040516324a255d960e11b815260040160405180910390fd5b6000818152600660205260409020541561200d576040516324a255d960e11b815260040160405180910390fd5b6001600160a01b038216600090815260076020908152604080832080546001019055928252600690522080546001600160601b031660609290921b6001600160601b031916919091179055565b606083156120c95782516000036120c2576001600160a01b0385163b6120c25760405162461bcd60e51b815260206004820152601d60248201527f416464726573733a2063616c6c20746f206e6f6e2d636f6e7472616374000000604482015260640161099c565b50816112b9565b6112b983838151156120de5781518083602001fd5b8060405162461bcd60e51b815260040161099c919061217b565b6001600160e01b031981168114610a3957600080fd5b60006020828403121561212057600080fd5b8135610b33816120f8565b60005b8381101561214657818101518382015260200161212e565b50506000910152565b6000815180845261216781602086016020860161212b565b601f01601f19169290920160200192915050565b602081526000610b33602083018461214f565b6000602082840312156121a057600080fd5b5035919050565b80356001600160a01b03811681146121be57600080fd5b919050565b600080604083850312156121d657600080fd5b6121df836121a7565b946020939093013593505050565b60008083601f8401126121ff57600080fd5b50813567ffffffffffffffff81111561221757600080fd5b602083019150836020828501011115611d2857600080fd5b60008060006040848603121561224457600080fd5b833567ffffffffffffffff81111561225b57600080fd5b612267868287016121ed565b909790965060209590950135949350505050565b6000806040838503121561228e57600080fd5b8235915061229e602084016121a7565b90509250929050565b6000806000606084860312156122bc57600080fd5b6122c5846121a7565b92506122d3602085016121a7565b9150604084013590509250925092565b6000602082840312156122f557600080fd5b610b33826121a7565b634e487b7160e01b600052604160045260246000fd5b604051601f8201601f1916810167ffffffffffffffff8111828210171561233d5761233d6122fe565b604052919050565b600067ffffffffffffffff82111561235f5761235f6122fe565b50601f01601f191660200190565b600082601f83011261237e57600080fd5b813561239161238c82612345565b612314565b8181528460208386010111156123a657600080fd5b816020850160208301376000918101602001919091529392505050565b600080604083850312156123d657600080fd5b6123df836121a7565b9150602083013567ffffffffffffffff8111156123fb57600080fd5b6112128582860161236d565b60006020828403121561241957600080fd5b813567ffffffffffffffff81111561243057600080fd5b6112b98482850161236d565b803580151581146121be57600080fd5b6000806040838503121561245f57600080fd5b612468836121a7565b915061229e6020840161243c565b60008060006060848603121561248b57600080fd5b612494846121a7565b92506124a2602085016121a7565b91506124b06040850161243c565b90509250925092565b600080600080608085870312156124cf57600080fd5b6124d8856121a7565b93506124e6602086016121a7565b925060408501359150606085013567ffffffffffffffff81111561250957600080fd5b6125158782880161236d565b91505092959194509250565b60008060008060006060868803121561253957600080fd5b853567ffffffffffffffff8082111561255157600080fd5b61255d89838a016121ed565b9097509550859150612571602089016121a7565b9450604088013591508082111561258757600080fd5b818801915088601f83011261259b57600080fd5b8135818111156125aa57600080fd5b8960208260051b85010111156125bf57600080fd5b9699959850939650602001949392505050565b600080604083850312156125e557600080fd5b6125ee836121a7565b915061229e602084016121a7565b600181811c9082168061261057607f821691505b60208210810361263057634e487b7160e01b600052602260045260246000fd5b50919050565b601f82111561078c576000816000526020600020601f850160051c8101602086101561265f5750805b601f850160051c820191505b8181101561267e5782815560010161266b565b505050505050565b67ffffffffffffffff83111561269e5761269e6122fe565b6126b2836126ac83546125fc565b83612636565b6000601f8411600181146126e657600085156126ce5750838201355b600019600387901b1c1916600186901b178355612740565b600083815260209020601f19861690835b8281101561271757868501358255602094850194600190920191016126f7565b50868210156127345760001960f88860031b161c19848701351681555b505060018560011b0183555b5050505050565b6020808252602c908201527f46756e6374696f6e206d7573742062652063616c6c6564207468726f7567682060408201526b19195b1959d85d1958d85b1b60a21b606082015260800190565b6020808252602c908201527f46756e6374696f6e206d7573742062652063616c6c6564207468726f7567682060408201526b6163746976652070726f787960a01b606082015260800190565b634e487b7160e01b600052603260045260246000fd5b634e487b7160e01b600052601160045260246000fd5b8082018082111561088e5761088e6127f5565b60006020828403121561283057600080fd5b5051919050565b6020808252602b908201527f496e697469616c697a61626c653a20636f6e7472616374206973206e6f74206960408201526a6e697469616c697a696e6760a81b606082015260800190565b8181038181111561088e5761088e6127f5565b81835281816020850137506000828201602090810191909152601f909101601f19169091010190565b6020815260006112b9602083018486612895565b6000604082018583526020604060208501528185835260608501905060608660051b86010192508660005b8781101561296d57868503605f190183528135368a9003601e1901811261292357600080fd5b8901848101903567ffffffffffffffff81111561293f57600080fd5b80360382131561294e57600080fd5b612959878284612895565b9650505091830191908301906001016128fd565b509298975050505050505050565b6000602080838503121561298e57600080fd5b825167ffffffffffffffff808211156129a657600080fd5b818501915085601f8301126129ba57600080fd5b8151818111156129cc576129cc6122fe565b8060051b6129db858201612314565b91825283810185019185810190898411156129f557600080fd5b86860192505b83831015612a6d57825185811115612a135760008081fd5b8601603f81018b13612a255760008081fd5b878101516040612a3761238c83612345565b8281528d82848601011115612a4c5760008081fd5b612a5b838c830184870161212b565b855250505091860191908601906129fb565b9998505050505050505050565b6001600160a01b0385811682528416602082015260408101839052608060608201819052600090611f829083018461214f565b600060208284031215612abf57600080fd5b8151610b33816120f8565b60008251612adc81846020870161212b565b919091019291505056fe360894a13ba1a3210667c828492db98dca3e2076cc3735a920a3ca505d382bbc416464726573733a206c6f772d6c6576656c2064656c65676174652063616c6c206661696c6564a26469706673582212209fefab139234fb45128c7107850c6927f664693838f0b11e849e298fc1eb1b8d64736f6c63430008160033",
    "linkReferences": {}
  },
  "methodIdentifiers": {
    "TLD_DNS_WIRE()": "303bc8ac",
    "TLD_HASH()": "d5c45714",
    "TLD_LABEL()": "d1131c72",
    "__initTLDRegistration(bytes,bytes32)": "12403916",
    "_setApprovalForAll(address,address,bool)": "8c4e3f32",
    "approve(address,uint256)": "095ea7b3",
    "auth(bytes32,address)": "516a166a",
    "auth(uint256,address)": "1492017b",
    "balanceOf(address)": "70a08231",
    "getApproved(uint256)": "081812fc",
    "getInitializedVersion()": "b3c65015",
    "initialize(address)": "c4d66de8",
    "isApprovedForAll(address,address)": "e985e9c5",
    "isWebmaster(address,address)": "d314c607",
    "isWebmaster(address,uint256)": "c1ea25f1",
    "name()": "06fdde03",
    "owner()": "8da5cb5b",
    "ownerOf(uint256)": "6352211e",
    "parents(uint256)": "898572a6",
    "proxiableUUID()": "52d1902d",
    "kns()": "169e0dde",
    "register(bytes,address,bytes[])": "d123f99a",
    "renounceOwnership()": "715018a6",
    "revokeControlOverSubdomain(bytes)": "5864c817",
    "safeTransferFrom(address,address,uint256)": "42842e0e",
    "safeTransferFrom(address,address,uint256,bytes)": "b88d4fde",
    "setApprovalForAll(address,bool)": "a22cb465",
    "setWebmaster(address,bool)": "819eb625",
    "supportsInterface(bytes4)": "01ffc9a7",
    "symbol()": "95d89b41",
    "transferFrom(address,address,uint256)": "23b872dd",
    "transferOwnership(address)": "f2fde38b",
    "upgradeTo(address)": "3659cfe6",
    "upgradeToAndCall(address,bytes)": "4f1ef286"
  },
  "id": 50
}