{"abi":[{"type":"constructor","inputs":[{"name":"_ensregistry","type":"address","internalType":"address"},{"name":"_ensnamewrapper","type":"address","internalType":"address"},{"name":"_lz","type":"address","internalType":"address"},{"name":"_lzc","type":"uint16","internalType":"uint16"},{"name":"_exit","type":"address","internalType":"address"},{"name":"_exitlzc","type":"uint16","internalType":"uint16"}],"stateMutability":"nonpayable"},{"type":"fallback","stateMutability":"payable"},{"type":"receive","stateMutability":"payable"},{"type":"function","name":"cash","inputs":[],"outputs":[],"stateMutability":"nonpayable"},{"type":"function","name":"ensnamewrapper","inputs":[],"outputs":[{"name":"","type":"address","internalType":"address"}],"stateMutability":"view"},{"type":"function","name":"ensregistry","inputs":[],"outputs":[{"name":"","type":"address","internalType":"address"}],"stateMutability":"view"},{"type":"function","name":"exitlzc","inputs":[],"outputs":[{"name":"","type":"uint16","internalType":"uint16"}],"stateMutability":"view"},{"type":"function","name":"exitpath","inputs":[],"outputs":[{"name":"","type":"bytes","internalType":"bytes"}],"stateMutability":"view"},{"type":"function","name":"lz","inputs":[],"outputs":[{"name":"","type":"address","internalType":"contract ILayerZeroEndpoint"}],"stateMutability":"view"},{"type":"function","name":"lzc","inputs":[],"outputs":[{"name":"","type":"uint16","internalType":"uint16"}],"stateMutability":"view"},{"type":"function","name":"owner","inputs":[],"outputs":[{"name":"","type":"address","internalType":"address"}],"stateMutability":"view"},{"type":"function","name":"ping","inputs":[],"outputs":[],"stateMutability":"nonpayable"},{"type":"function","name":"setKNSRecords","inputs":[{"name":"fqdn","type":"bytes","internalType":"bytes"},{"name":"data","type":"bytes[]","internalType":"bytes[]"}],"outputs":[],"stateMutability":"nonpayable"},{"type":"error","name":"NotEnsOwner","inputs":[]}],"bytecode":{"object":"0x6101406040523480156200001257600080fd5b5060405162000fd538038062000fd58339810160408190526200003591620000e3565b6001600160a01b03868116610100528581166101205233608052841660a05261ffff831660c0526040516001600160601b0319606084811b8216602084015230901b166034820152604801604051602081830303815290604052600090816200009f91906200020b565b5061ffff1660e05250620002d79350505050565b80516001600160a01b0381168114620000cb57600080fd5b919050565b805161ffff81168114620000cb57600080fd5b60008060008060008060c08789031215620000fd57600080fd5b6200010887620000b3565b95506200011860208801620000b3565b94506200012860408801620000b3565b93506200013860608801620000d0565b92506200014860808801620000b3565b91506200015860a08801620000d0565b90509295509295509295565b634e487b7160e01b600052604160045260246000fd5b600181811c908216806200018f57607f821691505b602082108103620001b057634e487b7160e01b600052602260045260246000fd5b50919050565b601f82111562000206576000816000526020600020601f850160051c81016020861015620001e15750805b601f850160051c820191505b818110156200020257828155600101620001ed565b5050505b505050565b81516001600160401b0381111562000227576200022762000164565b6200023f816200023884546200017a565b84620001b6565b602080601f8311600181146200027757600084156200025e5750858301515b600019600386901b1c1916600185901b17855562000202565b600085815260208120601f198616915b82811015620002a85788860151825594840194600190910190840162000287565b5085821015620002c75787850151600019600388901b60f8161c191681555b5050505050600190811b01905550565b60805160a05160c05160e0516101005161012051610c866200034f6000396000818160aa01528181610340015261038d01526000818161024a01526102d101526000818160fb01526106f50152600061016201526000818161019601526106c6015260008181610201015261057c0152610c866000f3fe60806040526004361061008f5760003560e01c80635c36b186116100565780635c36b186146101b85780637fee035f146101cd5780638da5cb5b146101ef578063961be39114610223578063ba503bee1461023857005b8063065aeebc146100985780630d448b78146100e95780631105d7cb1461013057806330ff44b61461015057806333f97b591461018457005b3661009657005b005b3480156100a457600080fd5b506100cc7f000000000000000000000000000000000000000000000000000000000000000081565b6040516001600160a01b0390911681526020015b60405180910390f35b3480156100f557600080fd5b5061011d7f000000000000000000000000000000000000000000000000000000000000000081565b60405161ffff90911681526020016100e0565b34801561013c57600080fd5b5061009661014b366004610880565b61026c565b34801561015c57600080fd5b5061011d7f000000000000000000000000000000000000000000000000000000000000000081565b34801561019057600080fd5b506100cc7f000000000000000000000000000000000000000000000000000000000000000081565b3480156101c457600080fd5b506100966104a3565b3480156101d957600080fd5b506101e26104e3565b6040516100e0919061098b565b3480156101fb57600080fd5b506100cc7f000000000000000000000000000000000000000000000000000000000000000081565b34801561022f57600080fd5b50610096610571565b34801561024457600080fd5b506100cc7f000000000000000000000000000000000000000000000000000000000000000081565b60006102ad85858080601f016020809104026020016040519081016040528093929190818152602001838380828437600092018290525092506105eb915050565b6040516302571be360e01b8152600481018290529091506000906001600160a01b037f000000000000000000000000000000000000000000000000000000000000000016906302571be390602401602060405180830381865afa158015610318573d6000803e3d6000fd5b505050506040513d601f19601f8201168201806040525081019061033c91906109a5565b90507f00000000000000000000000000000000000000000000000000000000000000006001600160a01b0316816001600160a01b031603610403576040516331a9108f60e11b8152600481018390527f00000000000000000000000000000000000000000000000000000000000000006001600160a01b031690636352211e90602401602060405180830381865afa1580156103dc573d6000803e3d6000fd5b505050506040513d601f19601f8201168201806040525081019061040091906109a5565b90505b6001600160a01b038116331461042c576040516384760f9960e01b815260040160405180910390fd5b6000636a0d1c3460e01b338888888860405160240161044f9594939291906109f7565b60408051601f19818403018152918152602080830180516001600160e01b03166001600160e01b0319909516949094179093528051928301905260008252915061049a9082906106b0565b50505050505050565b6040805160048152602481018252602080820180516001600160e01b0316632e1b58c360e11b1790528251908101909252600082526104e1916106b0565b565b600080546104f090610ab9565b80601f016020809104026020016040519081016040528092919081815260200182805461051c90610ab9565b80156105695780601f1061053e57610100808354040283529160200191610569565b820191906000526020600020905b81548152906001019060200180831161054c57829003601f168201915b505050505081565b336001600160a01b037f000000000000000000000000000000000000000000000000000000000000000016146105a657600080fd5b60405133904790600081818185875af1925050503d80600081146105e6576040519150601f19603f3d011682016040523d82523d6000602084013e505050565b505050565b60008060006105fa8585610755565b90925090508161067157600185516106129190610b09565b84146106655760405162461bcd60e51b815260206004820152601d60248201527f6e616d65686173683a204a756e6b20617420656e64206f66206e616d6500000060448201526064015b60405180910390fd5b50600091506106aa9050565b61067b85826105eb565b604080516020810192909252810183905260600160405160208183030381529060405280519060200120925050505b92915050565b60405162c5803160e81b81526001600160a01b037f0000000000000000000000000000000000000000000000000000000000000000169063c5803100904790610728907f0000000000000000000000000000000000000000000000000000000000000000906000908890309083908a90600401610b1c565b6000604051808303818588803b15801561074157600080fd5b505af115801561049a573d6000803e3d6000fd5b600080835183106107a85760405162461bcd60e51b815260206004820152601e60248201527f726561644c6162656c3a20496e646578206f7574206f6620626f756e64730000604482015260640161065c565b60008484815181106107bc576107bc610c27565b016020015160f81c9050604081106108165760405162461bcd60e51b815260206004820152601960248201527f726561644c6162656c3a204c6162656c20746f6f206c6f6e6700000000000000604482015260640161065c565b8015610838576108318561082b866001610c3d565b8361085c565b925061083d565b600092505b6108478185610c3d565b610852906001610c3d565b9150509250929050565b825160009061086b8385610c3d565b111561087657600080fd5b5091016020012090565b6000806000806040858703121561089657600080fd5b843567ffffffffffffffff808211156108ae57600080fd5b818701915087601f8301126108c257600080fd5b8135818111156108d157600080fd5b8860208285010111156108e357600080fd5b6020928301965094509086013590808211156108fe57600080fd5b818701915087601f83011261091257600080fd5b81358181111561092157600080fd5b8860208260051b850101111561093657600080fd5b95989497505060200194505050565b6000815180845260005b8181101561096b5760208185018101518683018201520161094f565b506000602082860101526020601f19601f83011685010191505092915050565b60208152600061099e6020830184610945565b9392505050565b6000602082840312156109b757600080fd5b81516001600160a01b038116811461099e57600080fd5b81835281816020850137506000828201602090810191909152601f909101601f19169091010190565b6001600160a01b038616815260606020808301829052600091610a1d90840187896109ce565b8381036040850152848152818101600586901b820183018760005b88811015610aa857848303601f190184528135368b9003601e19018112610a5e57600080fd5b8a01868101903567ffffffffffffffff811115610a7a57600080fd5b803603821315610a8957600080fd5b610a948582846109ce565b958801959450505090850190600101610a38565b50909b9a5050505050505050505050565b600181811c90821680610acd57607f821691505b602082108103610aed57634e487b7160e01b600052602260045260246000fd5b50919050565b634e487b7160e01b600052601160045260246000fd5b818103818111156106aa576106aa610af3565b61ffff871681526000602060c06020840152600088548160018260011c91506001831680610b4b57607f831692505b602083108103610b6957634e487b7160e01b85526022600452602485fd5b60c0880183905260e08801818015610b885760018114610b9e57610bc9565b60ff198616825284151560051b82019650610bc9565b60008f81526020902060005b86811015610bc357815484820152908501908901610baa565b83019750505b5050505050508381036040850152610be18189610945565b915050610bf960608401876001600160a01b03169052565b6001600160a01b038516608084015282810360a0840152610c1a8185610945565b9998505050505050505050565b634e487b7160e01b600052603260045260246000fd5b808201808211156106aa576106aa610af356fea2646970667358221220e3ac694477aa6f714010898307fc04e89a5db768141cf94df85e978acab5985764736f6c63430008170033","linkReferences":{}},"methodIdentifiers":{"cash()":"961be391","ensnamewrapper()":"065aeebc","ensregistry()":"ba503bee","exitlzc()":"0d448b78","exitpath()":"7fee035f","lz()":"33f97b59","lzc()":"30ff44b6","owner()":"8da5cb5b","ping()":"5c36b186","setKNSRecords(bytes,bytes[])":"1105d7cb"},"id":72}