{
  "abi": [
    {
      "inputs": [],
      "name": "NotTLD",
      "type": "error"
    },
    {
      "inputs": [],
      "name": "TLD401",
      "type": "error"
    },
    {
      "inputs": [],
      "name": "TLDRegistrarOnly",
      "type": "error"
    },
    {
      "anonymous": false,
      "inputs": [
        {
          "indexed": false,
          "internalType": "address",
          "name": "previousAdmin",
          "type": "address"
        },
        {
          "indexed": false,
          "internalType": "address",
          "name": "newAdmin",
          "type": "address"
        }
      ],
      "name": "AdminChanged",
      "type": "event"
    },
    {
      "anonymous": false,
      "inputs": [
        {
          "indexed": true,
          "internalType": "address",
          "name": "beacon",
          "type": "address"
        }
      ],
      "name": "BeaconUpgraded",
      "type": "event"
    },
    {
      "anonymous": false,
      "inputs": [
        {
          "indexed": false,
          "internalType": "uint8",
          "name": "version",
          "type": "uint8"
        }
      ],
      "name": "Initialized",
      "type": "event"
    },
    {
      "anonymous": false,
      "inputs": [
        {
          "indexed": true,
          "internalType": "bytes32",
          "name": "node",
          "type": "bytes32"
        },
        {
          "indexed": false,
          "internalType": "uint128",
          "name": "ip",
          "type": "uint128"
        }
      ],
      "name": "IpUpdate",
      "type": "event"
    },
    {
      "anonymous": false,
      "inputs": [
        {
          "indexed": true,
          "internalType": "bytes32",
          "name": "node",
          "type": "bytes32"
        },
        {
          "indexed": false,
          "internalType": "bytes32",
          "name": "key",
          "type": "bytes32"
        }
      ],
      "name": "KeyUpdate",
      "type": "event"
    },
    {
      "anonymous": false,
      "inputs": [
        {
          "indexed": true,
          "internalType": "bytes32",
          "name": "node",
          "type": "bytes32"
        },
        {
          "indexed": false,
          "internalType": "bytes",
          "name": "name",
          "type": "bytes"
        },
        {
          "indexed": false,
          "internalType": "address",
          "name": "tld",
          "type": "address"
        }
      ],
      "name": "NewTLD",
      "type": "event"
    },
    {
      "anonymous": false,
      "inputs": [
        {
          "indexed": true,
          "internalType": "bytes32",
          "name": "node",
          "type": "bytes32"
        },
        {
          "indexed": false,
          "internalType": "bytes",
          "name": "name",
          "type": "bytes"
        }
      ],
      "name": "NodeRegistered",
      "type": "event"
    },
    {
      "anonymous": false,
      "inputs": [
        {
          "indexed": true,
          "internalType": "address",
          "name": "previousOwner",
          "type": "address"
        },
        {
          "indexed": true,
          "internalType": "address",
          "name": "newOwner",
          "type": "address"
        }
      ],
      "name": "OwnershipTransferred",
      "type": "event"
    },
    {
      "anonymous": false,
      "inputs": [
        {
          "indexed": true,
          "internalType": "bytes32",
          "name": "node",
          "type": "bytes32"
        }
      ],
      "name": "RecordsCleared",
      "type": "event"
    },
    {
      "anonymous": false,
      "inputs": [
        {
          "indexed": true,
          "internalType": "bytes32",
          "name": "node",
          "type": "bytes32"
        },
        {
          "indexed": false,
          "internalType": "bytes32[]",
          "name": "routers",
          "type": "bytes32[]"
        }
      ],
      "name": "RoutingUpdate",
      "type": "event"
    },
    {
      "anonymous": false,
      "inputs": [
        {
          "indexed": true,
          "internalType": "bytes32",
          "name": "node",
          "type": "bytes32"
        },
        {
          "indexed": false,
          "internalType": "uint16",
          "name": "port",
          "type": "uint16"
        }
      ],
      "name": "TcpUpdate",
      "type": "event"
    },
    {
      "anonymous": false,
      "inputs": [
        {
          "indexed": true,
          "internalType": "bytes32",
          "name": "node",
          "type": "bytes32"
        },
        {
          "indexed": false,
          "internalType": "uint16",
          "name": "port",
          "type": "uint16"
        }
      ],
      "name": "UdpUpdate",
      "type": "event"
    },
    {
      "anonymous": false,
      "inputs": [
        {
          "indexed": true,
          "internalType": "address",
          "name": "implementation",
          "type": "address"
        }
      ],
      "name": "Upgraded",
      "type": "event"
    },
    {
      "anonymous": false,
      "inputs": [
        {
          "indexed": true,
          "internalType": "bytes32",
          "name": "node",
          "type": "bytes32"
        },
        {
          "indexed": false,
          "internalType": "uint16",
          "name": "port",
          "type": "uint16"
        }
      ],
      "name": "WsUpdate",
      "type": "event"
    },
    {
      "anonymous": false,
      "inputs": [
        {
          "indexed": true,
          "internalType": "bytes32",
          "name": "node",
          "type": "bytes32"
        },
        {
          "indexed": false,
          "internalType": "uint16",
          "name": "port",
          "type": "uint16"
        }
      ],
      "name": "WtUpdate",
      "type": "event"
    },
    {
      "inputs": [
        {
          "internalType": "bytes32",
          "name": "",
          "type": "bytes32"
        }
      ],
      "name": "TLDs",
      "outputs": [
        {
          "internalType": "address",
          "name": "",
          "type": "address"
        }
      ],
      "stateMutability": "view",
      "type": "function"
    },
    {
      "inputs": [
        {
          "internalType": "bytes32",
          "name": "_node",
          "type": "bytes32"
        },
        {
          "internalType": "uint96",
          "name": "_records",
          "type": "uint96"
        }
      ],
      "name": "clearRecords",
      "outputs": [],
      "stateMutability": "nonpayable",
      "type": "function"
    },
    {
      "inputs": [],
      "name": "getInitializedVersion",
      "outputs": [
        {
          "internalType": "uint8",
          "name": "",
          "type": "uint8"
        }
      ],
      "stateMutability": "view",
      "type": "function"
    },
    {
      "inputs": [],
      "name": "initialize",
      "outputs": [],
      "stateMutability": "nonpayable",
      "type": "function"
    },
    {
      "inputs": [
        {
          "internalType": "bytes32",
          "name": "",
          "type": "bytes32"
        }
      ],
      "name": "ip",
      "outputs": [
        {
          "internalType": "uint128",
          "name": "ip",
          "type": "uint128"
        },
        {
          "internalType": "uint16",
          "name": "ws",
          "type": "uint16"
        },
        {
          "internalType": "uint16",
          "name": "wt",
          "type": "uint16"
        },
        {
          "internalType": "uint16",
          "name": "tcp",
          "type": "uint16"
        },
        {
          "internalType": "uint16",
          "name": "udp",
          "type": "uint16"
        }
      ],
      "stateMutability": "view",
      "type": "function"
    },
    {
      "inputs": [
        {
          "internalType": "bytes32",
          "name": "",
          "type": "bytes32"
        }
      ],
      "name": "key",
      "outputs": [
        {
          "internalType": "bytes32",
          "name": "",
          "type": "bytes32"
        }
      ],
      "stateMutability": "view",
      "type": "function"
    },
    {
      "inputs": [
        {
          "internalType": "bytes[]",
          "name": "data",
          "type": "bytes[]"
        }
      ],
      "name": "multicall",
      "outputs": [
        {
          "internalType": "bytes[]",
          "name": "results",
          "type": "bytes[]"
        }
      ],
      "stateMutability": "nonpayable",
      "type": "function"
    },
    {
      "inputs": [
        {
          "internalType": "bytes32",
          "name": "node",
          "type": "bytes32"
        },
        {
          "internalType": "bytes[]",
          "name": "data",
          "type": "bytes[]"
        }
      ],
      "name": "multicallWithNodeCheck",
      "outputs": [
        {
          "internalType": "bytes[]",
          "name": "results",
          "type": "bytes[]"
        }
      ],
      "stateMutability": "nonpayable",
      "type": "function"
    },
    {
      "inputs": [
        {
          "internalType": "bytes32",
          "name": "",
          "type": "bytes32"
        }
      ],
      "name": "nodes",
      "outputs": [
        {
          "internalType": "contract ITLDRegistrar",
          "name": "tld",
          "type": "address"
        },
        {
          "internalType": "uint96",
          "name": "records",
          "type": "uint96"
        }
      ],
      "stateMutability": "view",
      "type": "function"
    },
    {
      "inputs": [],
      "name": "owner",
      "outputs": [
        {
          "internalType": "address",
          "name": "",
          "type": "address"
        }
      ],
      "stateMutability": "view",
      "type": "function"
    },
    {
      "inputs": [],
      "name": "proxiableUUID",
      "outputs": [
        {
          "internalType": "bytes32",
          "name": "",
          "type": "bytes32"
        }
      ],
      "stateMutability": "view",
      "type": "function"
    },
    {
      "inputs": [
        {
          "internalType": "bytes",
          "name": "fqdn",
          "type": "bytes"
        }
      ],
      "name": "registerNode",
      "outputs": [
        {
          "internalType": "bytes32",
          "name": "nodeHash",
          "type": "bytes32"
        }
      ],
      "stateMutability": "nonpayable",
      "type": "function"
    },
    {
      "inputs": [
        {
          "internalType": "bytes",
          "name": "fqdn",
          "type": "bytes"
        },
        {
          "internalType": "address",
          "name": "registrar",
          "type": "address"
        }
      ],
      "name": "registerTLD",
      "outputs": [],
      "stateMutability": "nonpayable",
      "type": "function"
    },
    {
      "inputs": [],
      "name": "renounceOwnership",
      "outputs": [],
      "stateMutability": "nonpayable",
      "type": "function"
    },
    {
      "inputs": [
        {
          "internalType": "bytes32",
          "name": "_node",
          "type": "bytes32"
        }
      ],
      "name": "routers",
      "outputs": [
        {
          "internalType": "bytes32[]",
          "name": "",
          "type": "bytes32[]"
        }
      ],
      "stateMutability": "view",
      "type": "function"
    },
    {
      "inputs": [
        {
          "internalType": "bytes32",
          "name": "_node",
          "type": "bytes32"
        },
        {
          "internalType": "uint128",
          "name": "_ip",
          "type": "uint128"
        },
        {
          "internalType": "uint16",
          "name": "_ws",
          "type": "uint16"
        },
        {
          "internalType": "uint16",
          "name": "_wt",
          "type": "uint16"
        },
        {
          "internalType": "uint16",
          "name": "_tcp",
          "type": "uint16"
        },
        {
          "internalType": "uint16",
          "name": "_udp",
          "type": "uint16"
        }
      ],
      "name": "setAllIp",
      "outputs": [],
      "stateMutability": "nonpayable",
      "type": "function"
    },
    {
      "inputs": [
        {
          "internalType": "bytes32",
          "name": "_node",
          "type": "bytes32"
        },
        {
          "internalType": "uint128",
          "name": "_ip",
          "type": "uint128"
        },
        {
          "internalType": "uint16",
          "name": "_ws",
          "type": "uint16"
        },
        {
          "internalType": "uint16",
          "name": "_wt",
          "type": "uint16"
        },
        {
          "internalType": "uint16",
          "name": "_tcp",
          "type": "uint16"
        },
        {
          "internalType": "uint16",
          "name": "_udp",
          "type": "uint16"
        }
      ],
      "name": "setDirectInfo",
      "outputs": [],
      "stateMutability": "nonpayable",
      "type": "function"
    },
    {
      "inputs": [
        {
          "internalType": "bytes32",
          "name": "_node",
          "type": "bytes32"
        },
        {
          "internalType": "uint128",
          "name": "_ip",
          "type": "uint128"
        }
      ],
      "name": "setIp",
      "outputs": [],
      "stateMutability": "nonpayable",
      "type": "function"
    },
    {
      "inputs": [
        {
          "internalType": "bytes32",
          "name": "_node",
          "type": "bytes32"
        },
        {
          "internalType": "bytes32",
          "name": "_key",
          "type": "bytes32"
        }
      ],
      "name": "setKey",
      "outputs": [],
      "stateMutability": "nonpayable",
      "type": "function"
    },
    {
      "inputs": [
        {
          "internalType": "bytes32",
          "name": "_node",
          "type": "bytes32"
        },
        {
          "internalType": "bytes32[]",
          "name": "_newRouters",
          "type": "bytes32[]"
        }
      ],
      "name": "setRouters",
      "outputs": [],
      "stateMutability": "nonpayable",
      "type": "function"
    },
    {
      "inputs": [
        {
          "internalType": "bytes32",
          "name": "_node",
          "type": "bytes32"
        },
        {
          "internalType": "uint16",
          "name": "_tcp",
          "type": "uint16"
        }
      ],
      "name": "setTcp",
      "outputs": [],
      "stateMutability": "nonpayable",
      "type": "function"
    },
    {
      "inputs": [
        {
          "internalType": "bytes32",
          "name": "_node",
          "type": "bytes32"
        },
        {
          "internalType": "uint16",
          "name": "_udp",
          "type": "uint16"
        }
      ],
      "name": "setUdp",
      "outputs": [],
      "stateMutability": "nonpayable",
      "type": "function"
    },
    {
      "inputs": [
        {
          "internalType": "bytes32",
          "name": "_node",
          "type": "bytes32"
        },
        {
          "internalType": "uint16",
          "name": "_ws",
          "type": "uint16"
        }
      ],
      "name": "setWs",
      "outputs": [],
      "stateMutability": "nonpayable",
      "type": "function"
    },
    {
      "inputs": [
        {
          "internalType": "bytes32",
          "name": "_node",
          "type": "bytes32"
        },
        {
          "internalType": "uint16",
          "name": "_wt",
          "type": "uint16"
        }
      ],
      "name": "setWt",
      "outputs": [],
      "stateMutability": "nonpayable",
      "type": "function"
    },
    {
      "inputs": [
        {
          "internalType": "bytes4",
          "name": "interfaceID",
          "type": "bytes4"
        }
      ],
      "name": "supportsInterface",
      "outputs": [
        {
          "internalType": "bool",
          "name": "",
          "type": "bool"
        }
      ],
      "stateMutability": "view",
      "type": "function"
    },
    {
      "inputs": [
        {
          "internalType": "address",
          "name": "newOwner",
          "type": "address"
        }
      ],
      "name": "transferOwnership",
      "outputs": [],
      "stateMutability": "nonpayable",
      "type": "function"
    },
    {
      "inputs": [
        {
          "internalType": "address",
          "name": "newImplementation",
          "type": "address"
        }
      ],
      "name": "upgradeTo",
      "outputs": [],
      "stateMutability": "nonpayable",
      "type": "function"
    },
    {
      "inputs": [
        {
          "internalType": "address",
          "name": "newImplementation",
          "type": "address"
        },
        {
          "internalType": "bytes",
          "name": "data",
          "type": "bytes"
        }
      ],
      "name": "upgradeToAndCall",
      "outputs": [],
      "stateMutability": "payable",
      "type": "function"
    }
  ],
  "bytecode": {
    "object": "0x60a06040523060805234801561001457600080fd5b50608051612e6961004c60003960008181610e9e01528181610ee7015281816111e80152818161122801526112bb0152612e696000f3fe6080604052600436106101b75760003560e01c806374191440116100ec578063c9554a0c1161008a578063decd6bd511610064578063decd6bd5146105c9578063e32954eb146105e9578063f2fde38b14610609578063fbda8c3f1461062957600080fd5b8063c9554a0c1461051a578063cf506b4a1461053a578063d86e697d1461055a57600080fd5b8063aa1fce69116100c6578063aa1fce691461047e578063ac9650d8146104ab578063b3c65015146104d8578063c7988b37146104fa57600080fd5b8063741914401461042b5780638129fc1c1461044b5780638da5cb5b1461046057600080fd5b80633940afcd116101595780634f1ef286116101335780634f1ef2861461039257806352d1902d146103a557806365184956146103c8578063715018a61461041657600080fd5b80633940afcd1461032f5780634a2a6add1461034f5780634f0575491461036f57600080fd5b80632363b1a6116101955780632363b1a6146102af578063300777af146102cf57806332946692146102ef5780633659cfe61461030f57600080fd5b806301ffc9a7146101bc57806305f93b5f146101f157806307a003301461028d575b600080fd5b3480156101c857600080fd5b506101dc6101d73660046125bc565b610656565b60405190151581526020015b60405180910390f35b3480156101fd57600080fd5b5061025261020c3660046125e6565b60ff602052600090815260409020546001600160801b0381169061ffff600160801b8204811691600160901b8104821691600160a01b8204811691600160b01b90041685565b604080516001600160801b03909616865261ffff9485166020870152928416928501929092528216606084015216608082015260a0016101e8565b34801561029957600080fd5b506102ad6102a83660046125ff565b61068d565b005b3480156102bb57600080fd5b506102ad6102ca366004612638565b6107ea565b3480156102db57600080fd5b506102ad6102ea36600461267b565b610958565b3480156102fb57600080fd5b506102ad61030a36600461269e565b610ad2565b34801561031b57600080fd5b506102ad61032a366004612722565b610e94565b34801561033b57600080fd5b506102ad61034a366004612782565b610f7c565b34801561035b57600080fd5b506102ad61036a3660046127ce565b6110e2565b34801561037b57600080fd5b506102ad61038a36600461269e565b505050505050565b6102ad6103a0366004612820565b6111de565b3480156103b157600080fd5b506103ba6112ae565b6040519081526020016101e8565b3480156103d457600080fd5b506103fe6103e33660046125e6565b60fb602052600090815260409020546001600160a01b031681565b6040516001600160a01b0390911681526020016101e8565b34801561042257600080fd5b506102ad611361565b34801561043757600080fd5b506102ad610446366004612638565b611375565b34801561045757600080fd5b506102ad6114e8565b34801561046c57600080fd5b5060c9546001600160a01b03166103fe565b34801561048a57600080fd5b5061049e6104993660046125e6565b611600565b6040516101e891906128e2565b3480156104b757600080fd5b506104cb6104c6366004612926565b611662565b6040516101e891906129b8565b3480156104e457600080fd5b5060005460405160ff90911681526020016101e8565b34801561050657600080fd5b506102ad610515366004612638565b611677565b34801561052657600080fd5b506103ba610535366004612a5e565b6117ec565b34801561054657600080fd5b506102ad610555366004612a94565b6118f2565b34801561056657600080fd5b506105a26105753660046125e6565b60fc602052600090815260409020546001600160a01b03811690600160a01b90046001600160601b031682565b604080516001600160a01b0390931683526001600160601b039091166020830152016101e8565b3480156105d557600080fd5b506102ad6105e4366004612638565b611a71565b3480156105f557600080fd5b506104cb610604366004612782565b611bdf565b34801561061557600080fd5b506102ad610624366004612722565b611bf4565b34801561063557600080fd5b506103ba6106443660046125e6565b60fd6020526000908152604090205481565b60006001600160e01b03198216632065a08b60e01b148061068757506301ffc9a760e01b6001600160e01b03198316145b92915050565b600082815260fc6020526040908190205490516328b50b3560e11b81526004810184905233602482015283916001600160a01b03169063516a166a90604401602060405180830381865afa1580156106e9573d6000803e3d6000fd5b505050506040513d601f19601f8201168201806040525081019061070d9190612ae8565b61072a57604051634745a29b60e01b815260040160405180910390fd5b600083815260fd60205260409020829055811561077c57600083815260fc6020526040902080546001600160a01b0381166001600160a01b928390046001600160601b031617918202179091556107aa565b600083815260fc6020526040902080546001600160a01b0381166001600160a01b9283900416918202179091555b50827f8ad9db565fe90ae9d4d50c51a4bf38505bfc2013675dbfd3510e0d6a4d050ba5836040516107dd91815260200190565b60405180910390a2505050565b600082815260fc6020526040908190205490516328b50b3560e11b81526004810184905233602482015283916001600160a01b03169063516a166a90604401602060405180830381865afa158015610846573d6000803e3d6000fd5b505050506040513d601f19601f8201168201806040525081019061086a9190612ae8565b61088757604051634745a29b60e01b815260040160405180910390fd5b600083815260ff60205260409020805461ffff60801b1916600160801b61ffff851690810291909117909155156108f357600083815260fc6020526040902080546001600160a01b0381166008600160a01b928390046001600160601b03161791820217909155610921565b600083815260fc6020526040902080546001600160a01b0381166008600160a01b9283900416918202179091555b5060405161ffff8316815283907f11424874391782446f3957eb6ca27caa9af2d78d87980762c13090bd2845f71f906020016107dd565b600082815260fc6020526040908190205490516328b50b3560e11b81526004810184905233602482015283916001600160a01b03169063516a166a90604401602060405180830381865afa1580156109b4573d6000803e3d6000fd5b505050506040513d601f19601f820116820180604052508101906109d89190612ae8565b6109f557604051634745a29b60e01b815260040160405180910390fd5b600083815260ff6020526040902080546fffffffffffffffffffffffffffffffff19166001600160801b03841690811790915515610a6857600083815260fc6020526040902080546001600160a01b0381166004600160a01b928390046001600160601b03161791820217909155610a96565b600083815260fc6020526040902080546001600160a01b0381166004600160a01b9283900416918202179091555b506040516001600160801b038316815283907f27831fc2ef572cce1298d5d9fc3cc1304eb5dfcea21d2190e5ad5943e4fa14fc906020016107dd565b600086815260fc6020526040908190205490516328b50b3560e11b81526004810188905233602482015287916001600160a01b03169063516a166a90604401602060405180830381865afa158015610b2e573d6000803e3d6000fd5b505050506040513d601f19601f82011682018060405250810190610b529190612ae8565b610b6f57604051634745a29b60e01b815260040160405180910390fd5b600087815260fc6020526040902054600160a01b90046001600160601b03166001600160801b03871615610ba65760048117610bab565b600481165b905061ffff861615610bc05760088117610bc5565b600881165b905061ffff851615610bda5760108117610bdf565b601081165b905061ffff841615610bf45760208117610bf9565b602081165b905061ffff831615610c0e5760408117610c13565b604081165b90508060fc60008a815260200190815260200160002060000160146101000a8154816001600160601b0302191690836001600160601b031602179055506040518060a00160405280886001600160801b031681526020018761ffff1681526020018661ffff1681526020018561ffff1681526020018461ffff1681525060ff60008a815260200190815260200160002060008201518160000160006101000a8154816001600160801b0302191690836001600160801b0316021790555060208201518160000160106101000a81548161ffff021916908361ffff16021790555060408201518160000160126101000a81548161ffff021916908361ffff16021790555060608201518160000160146101000a81548161ffff021916908361ffff16021790555060808201518160000160166101000a81548161ffff021916908361ffff160217905550905050877f27831fc2ef572cce1298d5d9fc3cc1304eb5dfcea21d2190e5ad5943e4fa14fc88604051610d9e91906001600160801b0391909116815260200190565b60405180910390a260405161ffff8716815288907f11424874391782446f3957eb6ca27caa9af2d78d87980762c13090bd2845f71f9060200160405180910390a260405161ffff8616815288907f4554b2837a782a075cb46bd0c681b73ef5e49cbcbeb3323e6f1fd9d3ec93a4c39060200160405180910390a260405161ffff8516815288907fc9b39ee25167b4c4f1ba319c61772350b508db76f73d0b25575173210386d9f39060200160405180910390a260405161ffff8416815288907f3d36ae2226b041dc65d74c772bae84c40b4ac6d1da927d7b633940d819c09c1a9060200160405180910390a25050505050505050565b6001600160a01b037f0000000000000000000000000000000000000000000000000000000000000000163003610ee55760405162461bcd60e51b8152600401610edc90612b0a565b60405180910390fd5b7f00000000000000000000000000000000000000000000000000000000000000006001600160a01b0316610f2e600080516020612ded833981519152546001600160a01b031690565b6001600160a01b031614610f545760405162461bcd60e51b8152600401610edc90612b56565b610f5d81611c6a565b60408051600080825260208201909252610f7991839190611c72565b50565b600083815260fc6020526040908190205490516328b50b3560e11b81526004810185905233602482015284916001600160a01b03169063516a166a90604401602060405180830381865afa158015610fd8573d6000803e3d6000fd5b505050506040513d601f19601f82011682018060405250810190610ffc9190612ae8565b61101957604051634745a29b60e01b815260040160405180910390fd5b600084815260fe6020526040902061103290848461255c565b541561107357600084815260fc6020526040902080546001600160a01b0381166002600160a01b928390046001600160601b031617918202179091556110a1565b600084815260fc6020526040902080546001600160a01b0381166002600160a01b9283900416918202179091555b50837fd5a074e1c505de1aae7c94787f2e46faf07aceba6fc0c6a5f82f223ca1de2c5784846040516110d4929190612ba2565b60405180910390a250505050565b600082815260fc6020526040908190205490516328b50b3560e11b81526004810184905233602482015283916001600160a01b03169063516a166a90604401602060405180830381865afa15801561113e573d6000803e3d6000fd5b505050506040513d601f19601f820116820180604052508101906111629190612ae8565b61117f57604051634745a29b60e01b815260040160405180910390fd5b600083815260fc60205260408082208054600160a01b8082048719166001600160601b0316026001600160a01b039091161790555184917f43a5deaf1b43fdbf7f75cf9745d253c5d17328910ab7c757e664869316fe973391a2505050565b6001600160a01b037f00000000000000000000000000000000000000000000000000000000000000001630036112265760405162461bcd60e51b8152600401610edc90612b0a565b7f00000000000000000000000000000000000000000000000000000000000000006001600160a01b031661126f600080516020612ded833981519152546001600160a01b031690565b6001600160a01b0316146112955760405162461bcd60e51b8152600401610edc90612b56565b61129e82611c6a565b6112aa82826001611c72565b5050565b6000306001600160a01b037f0000000000000000000000000000000000000000000000000000000000000000161461134e5760405162461bcd60e51b815260206004820152603860248201527f555550535570677261646561626c653a206d757374206e6f742062652063616c60448201527f6c6564207468726f7567682064656c656761746563616c6c00000000000000006064820152608401610edc565b50600080516020612ded83398151915290565b611369611de2565b6113736000611e3c565b565b600082815260fc6020526040908190205490516328b50b3560e11b81526004810184905233602482015283916001600160a01b03169063516a166a90604401602060405180830381865afa1580156113d1573d6000803e3d6000fd5b505050506040513d601f19601f820116820180604052508101906113f59190612ae8565b61141257604051634745a29b60e01b815260040160405180910390fd5b600083815260ff60205260409020805461ffff60b01b1916600160b01b61ffff8516908102919091179091551561148257600083815260fc60205260409081902080546001600160601b03600160a01b808304919091169093179283026001600160a01b039091161790556114b1565b600083815260fc6020526040908190208054600160a01b8082049093169283026001600160a01b039091161790555b5060405161ffff8316815283907f3d36ae2226b041dc65d74c772bae84c40b4ac6d1da927d7b633940d819c09c1a906020016107dd565b600054610100900460ff16158080156115085750600054600160ff909116105b806115225750303b158015611522575060005460ff166001145b6115855760405162461bcd60e51b815260206004820152602e60248201527f496e697469616c697a61626c653a20636f6e747261637420697320616c72656160448201526d191e481a5b9a5d1a585b1a5e995960921b6064820152608401610edc565b6000805460ff1916600117905580156115a8576000805461ff0019166101001790555b6115b0611e8e565b6115b8611eb5565b8015610f79576000805461ff0019169055604051600181527f7f26b83ff96e1f2b6a682f133852f6798a09c465da95921460cefb38474024989060200160405180910390a150565b600081815260fe602090815260409182902080548351818402810184019094528084526060939283018282801561165657602002820191906000526020600020905b815481526020019060010190808311611642575b50505050509050919050565b606061167060008484611ee4565b9392505050565b600082815260fc6020526040908190205490516328b50b3560e11b81526004810184905233602482015283916001600160a01b03169063516a166a90604401602060405180830381865afa1580156116d3573d6000803e3d6000fd5b505050506040513d601f19601f820116820180604052508101906116f79190612ae8565b61171457604051634745a29b60e01b815260040160405180910390fd5b600083815260ff60205260409020805461ffff60a01b1916600160a01b61ffff8516908102919091179091551561178557600083815260fc6020908152604090912080546001600160601b03600160a01b808304919091169093179283026001600160a01b039091161790556117b5565b600083815260fc602090815260409091208054600160a01b8082049093169283026001600160a01b039091161790555b5060405161ffff8316815283907fc9b39ee25167b4c4f1ba319c61772350b508db76f73d0b25575173210386d9f3906020016107dd565b600080600061183085858080601f0160208091040260200160405190810160405280939291908181526020018383808284376000920191909152506120a992505050565b600081815260fb602052604090205491935091506001600160a01b0316331461186c5760405163ae7fd2eb60e01b815260040160405180910390fd5b6040805180820182523381526000602080830182815286835260fc90915290839020915190516001600160601b0316600160a01b026001600160a01b03919091161790555182907f76a77f5ff7e4ca0adac1c931a7ad2ea83bfb7e6b8603e81917dd2dca7e90625c906118e29088908890612c04565b60405180910390a2509392505050565b6118fa611de2565b600080611941600086868080601f01602080910402602001604051908101604052809392919081815260200183838082843760009201919091525092939250506120c09050565b9092509050611951600185612c2e565b81146119705760405163b444c4ed60e01b815260040160405180910390fd5b60408051600060208083018290528284018690528351808403850181526060840180865281519183019190912080845260fb835285842080546001600160a01b038b166001600160a01b0319918216811790925560fc90945295909320805490921685179091556309201c8b60e11b905291906312403916906119fb90899089908690606401612c41565b600060405180830381600087803b158015611a1557600080fd5b505af1158015611a29573d6000803e3d6000fd5b50505050807f7db14709557f4e6eec0d0c5f0c1855b31e9667a13ef65c90c284987c677d4004878787604051611a6193929190612c65565b60405180910390a2505050505050565b600082815260fc6020526040908190205490516328b50b3560e11b81526004810184905233602482015283916001600160a01b03169063516a166a90604401602060405180830381865afa158015611acd573d6000803e3d6000fd5b505050506040513d601f19601f82011682018060405250810190611af19190612ae8565b611b0e57604051634745a29b60e01b815260040160405180910390fd5b600083815260ff60205260409020805461ffff60901b1916600160901b61ffff85169081029190911790915515611b7a57600083815260fc6020526040902080546001600160a01b0381166010600160a01b928390046001600160601b03161791820217909155611ba8565b600083815260fc6020526040902080546001600160a01b0381166010600160a01b9283900416918202179091555b5060405161ffff8316815283907f4554b2837a782a075cb46bd0c681b73ef5e49cbcbeb3323e6f1fd9d3ec93a4c3906020016107dd565b6060611bec848484611ee4565b949350505050565b611bfc611de2565b6001600160a01b038116611c615760405162461bcd60e51b815260206004820152602660248201527f4f776e61626c653a206e6577206f776e657220697320746865207a65726f206160448201526564647265737360d01b6064820152608401610edc565b610f7981611e3c565b610f79611de2565b7f4910fdfa16fed3260ed0e7147f7cc6da11a60208b5b9406d12a635614ffd91435460ff1615611caa57611ca5836121c7565b505050565b826001600160a01b03166352d1902d6040518163ffffffff1660e01b8152600401602060405180830381865afa925050508015611d04575060408051601f3d908101601f19168201909252611d0191810190612c91565b60015b611d675760405162461bcd60e51b815260206004820152602e60248201527f45524331393637557067726164653a206e657720696d706c656d656e7461746960448201526d6f6e206973206e6f74205555505360901b6064820152608401610edc565b600080516020612ded8339815191528114611dd65760405162461bcd60e51b815260206004820152602960248201527f45524331393637557067726164653a20756e737570706f727465642070726f786044820152681a58589b195555525160ba1b6064820152608401610edc565b50611ca5838383612263565b60c9546001600160a01b031633146113735760405162461bcd60e51b815260206004820181905260248201527f4f776e61626c653a2063616c6c6572206973206e6f7420746865206f776e65726044820152606401610edc565b60c980546001600160a01b038381166001600160a01b0319831681179093556040519116919082907f8be0079c531659141344cd1fd0a4f28419497f9722a3daafe3b4186f6b6457e090600090a35050565b600054610100900460ff166113735760405162461bcd60e51b8152600401610edc90612caa565b600054610100900460ff16611edc5760405162461bcd60e51b8152600401610edc90612caa565b61137361228e565b60608167ffffffffffffffff811115611eff57611eff61280a565b604051908082528060200260200182016040528015611f3257816020015b6060815260200190600190039081611f1d5790505b50905060005b828110156120a1578415611ff4576000848483818110611f5a57611f5a612cf5565b9050602002810190611f6c9190612d0b565b611f7b91602491600491612d52565b611f8491612d7c565b9050858114611ff25760405162461bcd60e51b815260206004820152603460248201527f6d756c746963616c6c3a20416c6c207265636f726473206d7573742068617665604482015273040c240dac2e8c6d0d2dcce40dcc2dacad0c2e6d60631b6064820152608401610edc565b505b6000803086868581811061200a5761200a612cf5565b905060200281019061201c9190612d0b565b60405161202a929190612d9a565b600060405180830381855af49150503d8060008114612065576040519150601f19603f3d011682016040523d82523d6000602084013e61206a565b606091505b50915091508161207957600080fd5b8084848151811061208c5761208c612cf5565b60209081029190910101525050600101611f38565b509392505050565b6000806120b78360006122be565b91509150915091565b600080835183106121135760405162461bcd60e51b815260206004820152601e60248201527f726561644c6162656c3a20496e646578206f7574206f6620626f756e647300006044820152606401610edc565b600084848151811061212757612127612cf5565b016020015160f81c9050604081106121815760405162461bcd60e51b815260206004820152601960248201527f726561644c6162656c3a204c6162656c20746f6f206c6f6e67000000000000006044820152606401610edc565b80156121a35761219c85612196866001612daa565b836123c2565b92506121a8565b600092505b6121b28185612daa565b6121bd906001612daa565b9150509250929050565b6001600160a01b0381163b6122345760405162461bcd60e51b815260206004820152602d60248201527f455243313936373a206e657720696d706c656d656e746174696f6e206973206e60448201526c1bdd08184818dbdb9d1c9858dd609a1b6064820152608401610edc565b600080516020612ded83398151915280546001600160a01b0319166001600160a01b0392909216919091179055565b61226c836123e6565b6000825111806122795750805b15611ca5576122888383612426565b50505050565b600054610100900460ff166122b55760405162461bcd60e51b8152600401610edc90612caa565b61137333611e3c565b6000806000806122ce86866120c0565b90925090508161234357600186516122e69190612c2e565b85146123345760405162461bcd60e51b815260206004820152601d60248201527f6e616d65686173683a204a756e6b20617420656e64206f66206e616d650000006044820152606401610edc565b50600092508291506123bb9050565b60008061235088846122be565b9092509050806123875760408051600060208201529081018590526060016040516020818303038152906040528051906020012090505b6040805160208101849052908101859052606001604051602081830303815290604052805190602001208195509550505050505b9250929050565b82516000906123d18385612daa565b11156123dc57600080fd5b5091016020012090565b6123ef816121c7565b6040516001600160a01b038216907fbc7cd75a20ee27fd9adebab32041f755214dbc6bffa90cc0225b39da2e5c2d3b90600090a250565b60606116708383604051806060016040528060278152602001612e0d602791396060600080856001600160a01b0316856040516124639190612dbd565b600060405180830381855af49150503d806000811461249e576040519150601f19603f3d011682016040523d82523d6000602084013e6124a3565b606091505b50915091506124b4868383876124be565b9695505050505050565b6060831561252d578251600003612526576001600160a01b0385163b6125265760405162461bcd60e51b815260206004820152601d60248201527f416464726573733a2063616c6c20746f206e6f6e2d636f6e74726163740000006044820152606401610edc565b5081611bec565b611bec83838151156125425781518083602001fd5b8060405162461bcd60e51b8152600401610edc9190612dd9565b828054828255906000526020600020908101928215612597579160200282015b8281111561259757823582559160200191906001019061257c565b506125a39291506125a7565b5090565b5b808211156125a357600081556001016125a8565b6000602082840312156125ce57600080fd5b81356001600160e01b03198116811461167057600080fd5b6000602082840312156125f857600080fd5b5035919050565b6000806040838503121561261257600080fd5b50508035926020909101359150565b803561ffff8116811461263357600080fd5b919050565b6000806040838503121561264b57600080fd5b8235915061265b60208401612621565b90509250929050565b80356001600160801b038116811461263357600080fd5b6000806040838503121561268e57600080fd5b8235915061265b60208401612664565b60008060008060008060c087890312156126b757600080fd5b863595506126c760208801612664565b94506126d560408801612621565b93506126e360608801612621565b92506126f160808801612621565b91506126ff60a08801612621565b90509295509295509295565b80356001600160a01b038116811461263357600080fd5b60006020828403121561273457600080fd5b6116708261270b565b60008083601f84011261274f57600080fd5b50813567ffffffffffffffff81111561276757600080fd5b6020830191508360208260051b85010111156123bb57600080fd5b60008060006040848603121561279757600080fd5b83359250602084013567ffffffffffffffff8111156127b557600080fd5b6127c18682870161273d565b9497909650939450505050565b600080604083850312156127e157600080fd5b8235915060208301356001600160601b03811681146127ff57600080fd5b809150509250929050565b634e487b7160e01b600052604160045260246000fd5b6000806040838503121561283357600080fd5b61283c8361270b565b9150602083013567ffffffffffffffff8082111561285957600080fd5b818501915085601f83011261286d57600080fd5b81358181111561287f5761287f61280a565b604051601f8201601f19908116603f011681019083821181831017156128a7576128a761280a565b816040528281528860208487010111156128c057600080fd5b8260208601602083013760006020848301015280955050505050509250929050565b6020808252825182820181905260009190848201906040850190845b8181101561291a578351835292840192918401916001016128fe565b50909695505050505050565b6000806020838503121561293957600080fd5b823567ffffffffffffffff81111561295057600080fd5b61295c8582860161273d565b90969095509350505050565b60005b8381101561298357818101518382015260200161296b565b50506000910152565b600081518084526129a4816020860160208601612968565b601f01601f19169290920160200192915050565b600060208083016020845280855180835260408601915060408160051b87010192506020870160005b82811015612a0f57603f198886030184526129fd85835161298c565b945092850192908501906001016129e1565b5092979650505050505050565b60008083601f840112612a2e57600080fd5b50813567ffffffffffffffff811115612a4657600080fd5b6020830191508360208285010111156123bb57600080fd5b60008060208385031215612a7157600080fd5b823567ffffffffffffffff811115612a8857600080fd5b61295c85828601612a1c565b600080600060408486031215612aa957600080fd5b833567ffffffffffffffff811115612ac057600080fd5b612acc86828701612a1c565b9094509250612adf90506020850161270b565b90509250925092565b600060208284031215612afa57600080fd5b8151801515811461167057600080fd5b6020808252602c908201527f46756e6374696f6e206d7573742062652063616c6c6564207468726f7567682060408201526b19195b1959d85d1958d85b1b60a21b606082015260800190565b6020808252602c908201527f46756e6374696f6e206d7573742062652063616c6c6564207468726f7567682060408201526b6163746976652070726f787960a01b606082015260800190565b6020808252810182905260006001600160fb1b03831115612bc257600080fd5b8260051b80856040850137919091016040019392505050565b81835281816020850137506000828201602090810191909152601f909101601f19169091010190565b602081526000611bec602083018486612bdb565b634e487b7160e01b600052601160045260246000fd5b8181038181111561068757610687612c18565b604081526000612c55604083018587612bdb565b9050826020830152949350505050565b604081526000612c79604083018587612bdb565b905060018060a01b0383166020830152949350505050565b600060208284031215612ca357600080fd5b5051919050565b6020808252602b908201527f496e697469616c697a61626c653a20636f6e7472616374206973206e6f74206960408201526a6e697469616c697a696e6760a81b606082015260800190565b634e487b7160e01b600052603260045260246000fd5b6000808335601e19843603018112612d2257600080fd5b83018035915067ffffffffffffffff821115612d3d57600080fd5b6020019150368190038213156123bb57600080fd5b60008085851115612d6257600080fd5b83861115612d6f57600080fd5b5050820193919092039150565b8035602083101561068757600019602084900360031b1b1692915050565b8183823760009101908152919050565b8082018082111561068757610687612c18565b60008251612dcf818460208701612968565b9190910192915050565b602081526000611670602083018461298c56fe360894a13ba1a3210667c828492db98dca3e2076cc3735a920a3ca505d382bbc416464726573733a206c6f772d6c6576656c2064656c65676174652063616c6c206661696c6564a264697066735822122070a9f0e73254f89b10dbef9ecf7bdfc92f749197f3cc327e9f575c6c38e3afa264736f6c63430008160033",
    "linkReferences": {}
  },
  "methodIdentifiers": {
    "TLDs(bytes32)": "65184956",
    "clearRecords(bytes32,uint96)": "4a2a6add",
    "getInitializedVersion()": "b3c65015",
    "initialize()": "8129fc1c",
    "ip(bytes32)": "05f93b5f",
    "key(bytes32)": "fbda8c3f",
    "multicall(bytes[])": "ac9650d8",
    "multicallWithNodeCheck(bytes32,bytes[])": "e32954eb",
    "nodes(bytes32)": "d86e697d",
    "owner()": "8da5cb5b",
    "proxiableUUID()": "52d1902d",
    "registerNode(bytes)": "c9554a0c",
    "registerTLD(bytes,address)": "cf506b4a",
    "renounceOwnership()": "715018a6",
    "routers(bytes32)": "aa1fce69",
    "setAllIp(bytes32,uint128,uint16,uint16,uint16,uint16)": "32946692",
    "setDirectInfo(bytes32,uint128,uint16,uint16,uint16,uint16)": "4f057549",
    "setIp(bytes32,uint128)": "300777af",
    "setKey(bytes32,bytes32)": "07a00330",
    "setRouters(bytes32,bytes32[])": "3940afcd",
    "setTcp(bytes32,uint16)": "c7988b37",
    "setUdp(bytes32,uint16)": "74191440",
    "setWs(bytes32,uint16)": "2363b1a6",
    "setWt(bytes32,uint16)": "decd6bd5",
    "supportsInterface(bytes4)": "01ffc9a7",
    "transferOwnership(address)": "f2fde38b",
    "upgradeTo(address)": "3659cfe6",
    "upgradeToAndCall(address,bytes)": "4f1ef286"
  },
  "id": 68
}