{"abi":[{"type":"constructor","inputs":[{"name":"_ens","type":"address","internalType":"contract ENS"},{"name":"_registrar","type":"address","internalType":"contract IBaseRegistrar"},{"name":"_metadataService","type":"address","internalType":"contract IMetadataService"}],"stateMutability":"nonpayable"},{"type":"function","name":"_tokens","inputs":[{"name":"","type":"uint256","internalType":"uint256"}],"outputs":[{"name":"","type":"uint256","internalType":"uint256"}],"stateMutability":"view"},{"type":"function","name":"allFusesBurned","inputs":[{"name":"node","type":"bytes32","internalType":"bytes32"},{"name":"fuseMask","type":"uint32","internalType":"uint32"}],"outputs":[{"name":"","type":"bool","internalType":"bool"}],"stateMutability":"view"},{"type":"function","name":"approve","inputs":[{"name":"to","type":"address","internalType":"address"},{"name":"tokenId","type":"uint256","internalType":"uint256"}],"outputs":[],"stateMutability":"nonpayable"},{"type":"function","name":"balanceOf","inputs":[{"name":"account","type":"address","internalType":"address"},{"name":"id","type":"uint256","internalType":"uint256"}],"outputs":[{"name":"","type":"uint256","internalType":"uint256"}],"stateMutability":"view"},{"type":"function","name":"balanceOfBatch","inputs":[{"name":"accounts","type":"address[]","internalType":"address[]"},{"name":"ids","type":"uint256[]","internalType":"uint256[]"}],"outputs":[{"name":"","type":"uint256[]","internalType":"uint256[]"}],"stateMutability":"view"},{"type":"function","name":"canExtendSubnames","inputs":[{"name":"node","type":"bytes32","internalType":"bytes32"},{"name":"addr","type":"address","internalType":"address"}],"outputs":[{"name":"","type":"bool","internalType":"bool"}],"stateMutability":"view"},{"type":"function","name":"canModifyName","inputs":[{"name":"node","type":"bytes32","internalType":"bytes32"},{"name":"addr","type":"address","internalType":"address"}],"outputs":[{"name":"","type":"bool","internalType":"bool"}],"stateMutability":"view"},{"type":"function","name":"controllers","inputs":[{"name":"","type":"address","internalType":"address"}],"outputs":[{"name":"","type":"bool","internalType":"bool"}],"stateMutability":"view"},{"type":"function","name":"ens","inputs":[],"outputs":[{"name":"","type":"address","internalType":"contract ENS"}],"stateMutability":"view"},{"type":"function","name":"extendExpiry","inputs":[{"name":"parentNode","type":"bytes32","internalType":"bytes32"},{"name":"labelhash","type":"bytes32","internalType":"bytes32"},{"name":"expiry","type":"uint64","internalType":"uint64"}],"outputs":[{"name":"","type":"uint64","internalType":"uint64"}],"stateMutability":"nonpayable"},{"type":"function","name":"getApproved","inputs":[{"name":"id","type":"uint256","internalType":"uint256"}],"outputs":[{"name":"operator","type":"address","internalType":"address"}],"stateMutability":"view"},{"type":"function","name":"getData","inputs":[{"name":"id","type":"uint256","internalType":"uint256"}],"outputs":[{"name":"owner","type":"address","internalType":"address"},{"name":"fuses","type":"uint32","internalType":"uint32"},{"name":"expiry","type":"uint64","internalType":"uint64"}],"stateMutability":"view"},{"type":"function","name":"isApprovedForAll","inputs":[{"name":"account","type":"address","internalType":"address"},{"name":"operator","type":"address","internalType":"address"}],"outputs":[{"name":"","type":"bool","internalType":"bool"}],"stateMutability":"view"},{"type":"function","name":"isWrapped","inputs":[{"name":"parentNode","type":"bytes32","internalType":"bytes32"},{"name":"labelhash","type":"bytes32","internalType":"bytes32"}],"outputs":[{"name":"","type":"bool","internalType":"bool"}],"stateMutability":"view"},{"type":"function","name":"isWrapped","inputs":[{"name":"node","type":"bytes32","internalType":"bytes32"}],"outputs":[{"name":"","type":"bool","internalType":"bool"}],"stateMutability":"view"},{"type":"function","name":"metadataService","inputs":[],"outputs":[{"name":"","type":"address","internalType":"contract IMetadataService"}],"stateMutability":"view"},{"type":"function","name":"name","inputs":[],"outputs":[{"name":"","type":"string","internalType":"string"}],"stateMutability":"view"},{"type":"function","name":"names","inputs":[{"name":"","type":"bytes32","internalType":"bytes32"}],"outputs":[{"name":"","type":"bytes","internalType":"bytes"}],"stateMutability":"view"},{"type":"function","name":"onERC721Received","inputs":[{"name":"to","type":"address","internalType":"address"},{"name":"","type":"address","internalType":"address"},{"name":"tokenId","type":"uint256","internalType":"uint256"},{"name":"data","type":"bytes","internalType":"bytes"}],"outputs":[{"name":"","type":"bytes4","internalType":"bytes4"}],"stateMutability":"nonpayable"},{"type":"function","name":"owner","inputs":[],"outputs":[{"name":"","type":"address","internalType":"address"}],"stateMutability":"view"},{"type":"function","name":"ownerOf","inputs":[{"name":"id","type":"uint256","internalType":"uint256"}],"outputs":[{"name":"owner","type":"address","internalType":"address"}],"stateMutability":"view"},{"type":"function","name":"recoverFunds","inputs":[{"name":"_token","type":"address","internalType":"address"},{"name":"_to","type":"address","internalType":"address"},{"name":"_amount","type":"uint256","internalType":"uint256"}],"outputs":[],"stateMutability":"nonpayable"},{"type":"function","name":"registerAndWrapETH2LD","inputs":[{"name":"label","type":"string","internalType":"string"},{"name":"wrappedOwner","type":"address","internalType":"address"},{"name":"duration","type":"uint256","internalType":"uint256"},{"name":"resolver","type":"address","internalType":"address"},{"name":"ownerControlledFuses","type":"uint16","internalType":"uint16"}],"outputs":[{"name":"registrarExpiry","type":"uint256","internalType":"uint256"}],"stateMutability":"nonpayable"},{"type":"function","name":"registrar","inputs":[],"outputs":[{"name":"","type":"address","internalType":"contract IBaseRegistrar"}],"stateMutability":"view"},{"type":"function","name":"renew","inputs":[{"name":"tokenId","type":"uint256","internalType":"uint256"},{"name":"duration","type":"uint256","internalType":"uint256"}],"outputs":[{"name":"expires","type":"uint256","internalType":"uint256"}],"stateMutability":"nonpayable"},{"type":"function","name":"renounceOwnership","inputs":[],"outputs":[],"stateMutability":"nonpayable"},{"type":"function","name":"safeBatchTransferFrom","inputs":[{"name":"from","type":"address","internalType":"address"},{"name":"to","type":"address","internalType":"address"},{"name":"ids","type":"uint256[]","internalType":"uint256[]"},{"name":"amounts","type":"uint256[]","internalType":"uint256[]"},{"name":"data","type":"bytes","internalType":"bytes"}],"outputs":[],"stateMutability":"nonpayable"},{"type":"function","name":"safeTransferFrom","inputs":[{"name":"from","type":"address","internalType":"address"},{"name":"to","type":"address","internalType":"address"},{"name":"id","type":"uint256","internalType":"uint256"},{"name":"amount","type":"uint256","internalType":"uint256"},{"name":"data","type":"bytes","internalType":"bytes"}],"outputs":[],"stateMutability":"nonpayable"},{"type":"function","name":"setApprovalForAll","inputs":[{"name":"operator","type":"address","internalType":"address"},{"name":"approved","type":"bool","internalType":"bool"}],"outputs":[],"stateMutability":"nonpayable"},{"type":"function","name":"setChildFuses","inputs":[{"name":"parentNode","type":"bytes32","internalType":"bytes32"},{"name":"labelhash","type":"bytes32","internalType":"bytes32"},{"name":"fuses","type":"uint32","internalType":"uint32"},{"name":"expiry","type":"uint64","internalType":"uint64"}],"outputs":[],"stateMutability":"nonpayable"},{"type":"function","name":"setController","inputs":[{"name":"controller","type":"address","internalType":"address"},{"name":"active","type":"bool","internalType":"bool"}],"outputs":[],"stateMutability":"nonpayable"},{"type":"function","name":"setFuses","inputs":[{"name":"node","type":"bytes32","internalType":"bytes32"},{"name":"ownerControlledFuses","type":"uint16","internalType":"uint16"}],"outputs":[{"name":"","type":"uint32","internalType":"uint32"}],"stateMutability":"nonpayable"},{"type":"function","name":"setMetadataService","inputs":[{"name":"_metadataService","type":"address","internalType":"contract IMetadataService"}],"outputs":[],"stateMutability":"nonpayable"},{"type":"function","name":"setRecord","inputs":[{"name":"node","type":"bytes32","internalType":"bytes32"},{"name":"owner","type":"address","internalType":"address"},{"name":"resolver","type":"address","internalType":"address"},{"name":"ttl","type":"uint64","internalType":"uint64"}],"outputs":[],"stateMutability":"nonpayable"},{"type":"function","name":"setResolver","inputs":[{"name":"node","type":"bytes32","internalType":"bytes32"},{"name":"resolver","type":"address","internalType":"address"}],"outputs":[],"stateMutability":"nonpayable"},{"type":"function","name":"setSubnodeOwner","inputs":[{"name":"parentNode","type":"bytes32","internalType":"bytes32"},{"name":"label","type":"string","internalType":"string"},{"name":"owner","type":"address","internalType":"address"},{"name":"fuses","type":"uint32","internalType":"uint32"},{"name":"expiry","type":"uint64","internalType":"uint64"}],"outputs":[{"name":"node","type":"bytes32","internalType":"bytes32"}],"stateMutability":"nonpayable"},{"type":"function","name":"setSubnodeRecord","inputs":[{"name":"parentNode","type":"bytes32","internalType":"bytes32"},{"name":"label","type":"string","internalType":"string"},{"name":"owner","type":"address","internalType":"address"},{"name":"resolver","type":"address","internalType":"address"},{"name":"ttl","type":"uint64","internalType":"uint64"},{"name":"fuses","type":"uint32","internalType":"uint32"},{"name":"expiry","type":"uint64","internalType":"uint64"}],"outputs":[{"name":"node","type":"bytes32","internalType":"bytes32"}],"stateMutability":"nonpayable"},{"type":"function","name":"setTTL","inputs":[{"name":"node","type":"bytes32","internalType":"bytes32"},{"name":"ttl","type":"uint64","internalType":"uint64"}],"outputs":[],"stateMutability":"nonpayable"},{"type":"function","name":"setUpgradeContract","inputs":[{"name":"_upgradeAddress","type":"address","internalType":"contract INameWrapperUpgrade"}],"outputs":[],"stateMutability":"nonpayable"},{"type":"function","name":"supportsInterface","inputs":[{"name":"interfaceId","type":"bytes4","internalType":"bytes4"}],"outputs":[{"name":"","type":"bool","internalType":"bool"}],"stateMutability":"view"},{"type":"function","name":"transferOwnership","inputs":[{"name":"newOwner","type":"address","internalType":"address"}],"outputs":[],"stateMutability":"nonpayable"},{"type":"function","name":"unwrap","inputs":[{"name":"parentNode","type":"bytes32","internalType":"bytes32"},{"name":"labelhash","type":"bytes32","internalType":"bytes32"},{"name":"controller","type":"address","internalType":"address"}],"outputs":[],"stateMutability":"nonpayable"},{"type":"function","name":"unwrapETH2LD","inputs":[{"name":"labelhash","type":"bytes32","internalType":"bytes32"},{"name":"registrant","type":"address","internalType":"address"},{"name":"controller","type":"address","internalType":"address"}],"outputs":[],"stateMutability":"nonpayable"},{"type":"function","name":"upgrade","inputs":[{"name":"name","type":"bytes","internalType":"bytes"},{"name":"extraData","type":"bytes","internalType":"bytes"}],"outputs":[],"stateMutability":"nonpayable"},{"type":"function","name":"upgradeContract","inputs":[],"outputs":[{"name":"","type":"address","internalType":"contract INameWrapperUpgrade"}],"stateMutability":"view"},{"type":"function","name":"uri","inputs":[{"name":"tokenId","type":"uint256","internalType":"uint256"}],"outputs":[{"name":"","type":"string","internalType":"string"}],"stateMutability":"view"},{"type":"function","name":"wrap","inputs":[{"name":"name","type":"bytes","internalType":"bytes"},{"name":"wrappedOwner","type":"address","internalType":"address"},{"name":"resolver","type":"address","internalType":"address"}],"outputs":[],"stateMutability":"nonpayable"},{"type":"function","name":"wrapETH2LD","inputs":[{"name":"label","type":"string","internalType":"string"},{"name":"wrappedOwner","type":"address","internalType":"address"},{"name":"ownerControlledFuses","type":"uint16","internalType":"uint16"},{"name":"resolver","type":"address","internalType":"address"}],"outputs":[{"name":"expiry","type":"uint64","internalType":"uint64"}],"stateMutability":"nonpayable"},{"type":"event","name":"Approval","inputs":[{"name":"owner","type":"address","indexed":true,"internalType":"address"},{"name":"approved","type":"address","indexed":true,"internalType":"address"},{"name":"tokenId","type":"uint256","indexed":true,"internalType":"uint256"}],"anonymous":false},{"type":"event","name":"ApprovalForAll","inputs":[{"name":"account","type":"address","indexed":true,"internalType":"address"},{"name":"operator","type":"address","indexed":true,"internalType":"address"},{"name":"approved","type":"bool","indexed":false,"internalType":"bool"}],"anonymous":false},{"type":"event","name":"ControllerChanged","inputs":[{"name":"controller","type":"address","indexed":true,"internalType":"address"},{"name":"active","type":"bool","indexed":false,"internalType":"bool"}],"anonymous":false},{"type":"event","name":"ExpiryExtended","inputs":[{"name":"node","type":"bytes32","indexed":true,"internalType":"bytes32"},{"name":"expiry","type":"uint64","indexed":false,"internalType":"uint64"}],"anonymous":false},{"type":"event","name":"FusesSet","inputs":[{"name":"node","type":"bytes32","indexed":true,"internalType":"bytes32"},{"name":"fuses","type":"uint32","indexed":false,"internalType":"uint32"}],"anonymous":false},{"type":"event","name":"NameUnwrapped","inputs":[{"name":"node","type":"bytes32","indexed":true,"internalType":"bytes32"},{"name":"owner","type":"address","indexed":false,"internalType":"address"}],"anonymous":false},{"type":"event","name":"NameWrapped","inputs":[{"name":"node","type":"bytes32","indexed":true,"internalType":"bytes32"},{"name":"name","type":"bytes","indexed":false,"internalType":"bytes"},{"name":"owner","type":"address","indexed":false,"internalType":"address"},{"name":"fuses","type":"uint32","indexed":false,"internalType":"uint32"},{"name":"expiry","type":"uint64","indexed":false,"internalType":"uint64"}],"anonymous":false},{"type":"event","name":"OwnershipTransferred","inputs":[{"name":"previousOwner","type":"address","indexed":true,"internalType":"address"},{"name":"newOwner","type":"address","indexed":true,"internalType":"address"}],"anonymous":false},{"type":"event","name":"TransferBatch","inputs":[{"name":"operator","type":"address","indexed":true,"internalType":"address"},{"name":"from","type":"address","indexed":true,"internalType":"address"},{"name":"to","type":"address","indexed":true,"internalType":"address"},{"name":"ids","type":"uint256[]","indexed":false,"internalType":"uint256[]"},{"name":"values","type":"uint256[]","indexed":false,"internalType":"uint256[]"}],"anonymous":false},{"type":"event","name":"TransferSingle","inputs":[{"name":"operator","type":"address","indexed":true,"internalType":"address"},{"name":"from","type":"address","indexed":true,"internalType":"address"},{"name":"to","type":"address","indexed":true,"internalType":"address"},{"name":"id","type":"uint256","indexed":false,"internalType":"uint256"},{"name":"value","type":"uint256","indexed":false,"internalType":"uint256"}],"anonymous":false},{"type":"event","name":"URI","inputs":[{"name":"value","type":"string","indexed":false,"internalType":"string"},{"name":"id","type":"uint256","indexed":true,"internalType":"uint256"}],"anonymous":false},{"type":"error","name":"CannotUpgrade","inputs":[]},{"type":"error","name":"IncompatibleParent","inputs":[]},{"type":"error","name":"IncorrectTargetOwner","inputs":[{"name":"owner","type":"address","internalType":"address"}]},{"type":"error","name":"IncorrectTokenType","inputs":[]},{"type":"error","name":"LabelMismatch","inputs":[{"name":"labelHash","type":"bytes32","internalType":"bytes32"},{"name":"expectedLabelhash","type":"bytes32","internalType":"bytes32"}]},{"type":"error","name":"LabelTooLong","inputs":[{"name":"label","type":"string","internalType":"string"}]},{"type":"error","name":"LabelTooShort","inputs":[]},{"type":"error","name":"NameIsNotWrapped","inputs":[]},{"type":"error","name":"OperationProhibited","inputs":[{"name":"node","type":"bytes32","internalType":"bytes32"}]},{"type":"error","name":"Unauthorised","inputs":[{"name":"node","type":"bytes32","internalType":"bytes32"},{"name":"addr","type":"address","internalType":"address"}]}],"bytecode":{"object":"0x60c06040523480156200001157600080fd5b5060405162005d2f38038062005d2f8339810160408190526200003491620002f8565b823362000041816200028f565b6040516302571be360e01b81527f91d1777781884d03a6757a803996e38de2a42967fb37eeaca72729271025a9e260048201526000906001600160a01b038416906302571be390602401602060405180830381865afa158015620000a9573d6000803e3d6000fd5b505050506040513d601f19601f82011682018060405250810190620000cf91906200034c565b604051630f41a04d60e11b81526001600160a01b03848116600483015291925090821690631e83409a906024016020604051808303816000875af11580156200011c573d6000803e3d6000fd5b505050506040513d601f19601f8201168201806040525081019062000142919062000373565b505050506001600160a01b0383811660805282811660a052600580546001600160a01b031916918316919091179055600163fffeffff60a01b03197fafa26c20e8b3d9a2853d642cfe1021dae26242ffedfac91c97aab212c1a4b93b8190557fa6eef7e35abe7026729641147f7915573c7e97b47efa546f5f6e3230263bcb4955604080518082019091526001815260006020808301829052908052600690527f54cdd369e4e8a8515e52ca72ec816c2101831ad1f18bf44102ed171459c9b4f89062000210908262000434565b506040805180820190915260058152626cae8d60e31b6020808301919091527f93cdeb708b7545dc668eb9280176169d1c33cfd8ed6f04690a0bcc88a93fc4ae600052600690527ffb9e8e321b8a5ec48f12a7b41f22c6e595d761285c9eb19d8dda7c99edf1b54f9062000285908262000434565b5050505062000500565b600080546001600160a01b038381166001600160a01b0319831681178455604051919092169283917f8be0079c531659141344cd1fd0a4f28419497f9722a3daafe3b4186f6b6457e09190a35050565b6001600160a01b0381168114620002f557600080fd5b50565b6000806000606084860312156200030e57600080fd5b83516200031b81620002df565b60208501519093506200032e81620002df565b60408501519092506200034181620002df565b809150509250925092565b6000602082840312156200035f57600080fd5b81516200036c81620002df565b9392505050565b6000602082840312156200038657600080fd5b5051919050565b634e487b7160e01b600052604160045260246000fd5b600181811c90821680620003b857607f821691505b602082108103620003d957634e487b7160e01b600052602260045260246000fd5b50919050565b601f8211156200042f576000816000526020600020601f850160051c810160208610156200040a5750805b601f850160051c820191505b818110156200042b5782815560010162000416565b5050505b505050565b81516001600160401b038111156200045057620004506200038d565b6200046881620004618454620003a3565b84620003df565b602080601f831160018114620004a05760008415620004875750858301515b600019600386901b1c1916600185901b1785556200042b565b600085815260208120601f198616915b82811015620004d157888601518255948401946001909101908401620004b0565b5085821015620004f05787850151600019600388901b60f8161c191681555b5050505050600190811b01905550565b60805160a0516157226200060d6000396000818161047301528181610aee01528181610b9101528181610c20015281816118b80152818161194e015281816119fc01528181611ace01528181611b3f01528181611bc401528181611dd801528181611f14015281816120460152818161219e0152818161222401526129620152600081816104c001528181610a7401528181610d6a01528181610ef901528181610faa015281816112b601528181611f99015281816120cb015281816122cf015281816124810152818161275201528181612b9b01528181612c4901528181612cfe01528181612d7f0152818161328a015281816133dd015281816136450152613bf101526157226000f3fe608060405234801561001057600080fd5b506004361061029f5760003560e01c80636352211e11610167578063c93ab3fd116100ce578063e985e9c511610087578063e985e9c5146106d4578063eb8ae530146106e7578063ed70554d146106fa578063f242432a1461071a578063f2fde38b1461072d578063fd0cd0d91461074057600080fd5b8063c93ab3fd14610652578063cf40882314610665578063d8c9921a14610678578063d9a50c121461068b578063da8c229e1461069e578063e0dba60f146106c157600080fd5b8063a22cb46511610120578063a22cb465146105e0578063a4014982146105f3578063adf4960a14610606578063b6bcad2614610619578063c475abff1461062c578063c658e0861461063f57600080fd5b80636352211e146105635780636e5d6ad214610576578063715018a6146105a15780638b4dfa75146105a95780638cf8b41e146105bc5780638da5cb5b146105cf57600080fd5b80631f4e15041161020b5780633f15457f116101c45780633f15457f146104bb578063402906fc146104e257806341415eab1461050a5780634e1273f41461051d578063530954671461053d5780635d3590d51461055057600080fd5b80631f4e15041461043557806320c38e2b1461044857806324c1af441461045b5780632b20e3971461046e5780632eb2c2d61461049557806333c69ea9146104a857600080fd5b80630e4cd7251161025d5780630e4cd725146103aa5780630e89341c146103bd57806314ab9038146103d0578063150b7a02146103e35780631534e1771461040f5780631896f70a1461042257600080fd5b8062fdd58e146102a45780630178fe3f146102ca57806301ffc9a71461031057806306fdde0314610333578063081812fc1461036a578063095ea7b314610395575b600080fd5b6102b76102b236600461443e565b610753565b6040519081526020015b60405180910390f35b6102dd6102d836600461446a565b610800565b604080516001600160a01b03909416845263ffffffff90921660208401526001600160401b0316908201526060016102c1565b61032361031e366004614499565b610830565b60405190151581526020016102c1565b61035d6040518060400160405280600b81526020016a2730b6b2abb930b83832b960a91b81525081565b6040516102c19190614506565b61037d61037836600461446a565b610870565b6040516001600160a01b0390911681526020016102c1565b6103a86103a336600461443e565b6108b5565b005b6103236103b8366004614519565b6108fb565b61035d6103cb36600461446a565b610975565b6103a86103de366004614565565b6109e7565b6103f66103f13660046145d9565b610ae1565b6040516001600160e01b031990911681526020016102c1565b6103a861041d36600461464b565b610cc1565b6103a8610430366004614519565b610ceb565b60075461037d906001600160a01b031681565b61035d61045636600461446a565b610da1565b6102b7610469366004614741565b610e3b565b61037d7f000000000000000000000000000000000000000000000000000000000000000081565b6103a86104a336600461486c565b611021565b6103a86104b6366004614919565b611259565b61037d7f000000000000000000000000000000000000000000000000000000000000000081565b6104f56104f0366004614971565b61142a565b60405163ffffffff90911681526020016102c1565b610323610518366004614519565b6114c7565b61053061052b366004614994565b611500565b6040516102c19190614a92565b60055461037d906001600160a01b031681565b6103a861055e366004614aa5565b611621565b61037d61057136600461446a565b6116a2565b610589610584366004614ae6565b6116ad565b6040516001600160401b0390911681526020016102c1565b6103a86117e0565b6103a86105b7366004614b1b565b6117f4565b6105896105ca366004614b5d565b61191a565b6000546001600160a01b031661037d565b6103a86105ee366004614be5565b611c96565b6102b7610601366004614c13565b611d6c565b610323610614366004614c93565b611ead565b6103a861062736600461464b565b611ed2565b6102b761063a366004614cb6565b61212a565b6102b761064d366004614cd8565b612394565b6103a8610660366004614d4a565b61255c565b6103a8610673366004614db5565b6126af565b6103a8610686366004614ded565b612849565b610323610699366004614cb6565b612912565b6103236106ac36600461464b565b60046020526000908152604090205460ff1681565b6103a86106cf366004614be5565b6129f1565b6103236106e2366004614e1b565b612a59565b6103a86106f5366004614e49565b612a87565b6102b761070836600461446a565b60016020526000908152604090205481565b6103a8610728366004614eb0565b612e2b565b6103a861073b36600461464b565b612ed8565b61032361074e36600461446a565b612f4e565b60006001600160a01b0383166107c45760405162461bcd60e51b815260206004820152602b60248201527f455243313135353a2062616c616e636520717565727920666f7220746865207a60448201526a65726f206164647265737360a81b60648201526084015b60405180910390fd5b60006107cf836116a2565b9050836001600160a01b0316816001600160a01b0316036107f45760019150506107fa565b60009150505b92915050565b60008181526001602052604090205460a081901c60c082901c610824838383613026565b90959094509092509050565b60006001600160e01b03198216631b05885b60e31b148061086157506001600160e01b03198216630a85bd0160e11b145b806107fa57506107fa8261305c565b60008061087c836116a2565b90506001600160a01b0381166108955750600092915050565b6000838152600360205260409020546001600160a01b03165b9392505050565b60006108c082610800565b50915050603f1960408216016108ec5760405163a2a7201360e01b8152600481018390526024016107bb565b6108f683836130ac565b505050565b600080808061090986610800565b925092509250846001600160a01b0316836001600160a01b0316148061093457506109348386612a59565b8061095857506001600160a01b03851661094d87610870565b6001600160a01b0316145b801561096b575061096982826131bc565b155b9695505050505050565b6005546040516303a24d0760e21b8152600481018390526060916001600160a01b031690630e89341c90602401600060405180830381865afa1580156109bf573d6000803e3d6000fd5b505050506040513d6000823e601f3d908101601f191682016040526107fa9190810190614f18565b816109f281336114c7565b610a1357803360405163168ab55d60e31b81526004016107bb929190614f8f565b8260106000610a2183610800565b5091505063ffffffff8282161615610a4f5760405163a2a7201360e01b8152600481018490526024016107bb565b604051630295720760e31b8152600481018790526001600160401b03861660248201527f00000000000000000000000000000000000000000000000000000000000000006001600160a01b0316906314ab9038906044015b600060405180830381600087803b158015610ac157600080fd5b505af1158015610ad5573d6000803e3d6000fd5b50505050505050505050565b6000336001600160a01b037f00000000000000000000000000000000000000000000000000000000000000001614610b2c5760405163032634a760e31b815260040160405180910390fd5b6000808080610b3d86880188614fa6565b83516020850120939750919550935091508890808214610b7a576040516331970f3360e21b815260048101829052602481018390526044016107bb565b604051630a3b53db60e21b81526001600160a01b037f000000000000000000000000000000000000000000000000000000000000000016906328ed4f6c90610bc89085903090600401614f8f565b600060405180830381600087803b158015610be257600080fd5b505af1158015610bf6573d6000803e3d6000fd5b5050604051636b727d4360e11b8152600481018d9052600092506276a70091506001600160a01b037f0000000000000000000000000000000000000000000000000000000000000000169063d6e4fa8690602401602060405180830381865afa158015610c67573d6000803e3d6000fd5b505050506040513d601f19601f82011682018060405250810190610c8b919061500d565b610c95919061503c565b9050610ca887878761ffff1684886131ec565b50630a85bd0160e11b9c9b505050505050505050505050565b610cc96132fd565b600580546001600160a01b0319166001600160a01b0392909216919091179055565b81610cf681336114c7565b610d1757803360405163168ab55d60e31b81526004016107bb929190614f8f565b8260086000610d2583610800565b5091505063ffffffff8282161615610d535760405163a2a7201360e01b8152600481018490526024016107bb565b604051630c4b7b8560e11b81526001600160a01b037f00000000000000000000000000000000000000000000000000000000000000001690631896f70a90610aa79089908990600401614f8f565b60066020526000908152604090208054610dba90615063565b80601f0160208091040260200160405190810160405280929190818152602001828054610de690615063565b8015610e335780601f10610e0857610100808354040283529160200191610e33565b820191906000526020600020905b815481529060010190602001808311610e1657829003601f168201915b505050505081565b600087610e4881336114c7565b610e6957803360405163168ab55d60e31b81526004016107bb929190614f8f565b87516020890120610e7a8a82613357565b9250610e868a84613383565b610e9083866134c1565b610e9b8a848b6134f4565b50610ea88a8487876135c1565b9350610eb383613607565b610f68576040516305ef2c7f60e41b8152600481018b9052602481018290523060448201526001600160a01b0388811660648301526001600160401b03881660848301527f00000000000000000000000000000000000000000000000000000000000000001690635ef2c7f09060a401600060405180830381600087803b158015610f3d57600080fd5b505af1158015610f51573d6000803e3d6000fd5b50505050610f638a848b8b89896136c0565b611014565b6040516305ef2c7f60e41b8152600481018b9052602481018290523060448201526001600160a01b0388811660648301526001600160401b03881660848301527f00000000000000000000000000000000000000000000000000000000000000001690635ef2c7f09060a401600060405180830381600087803b158015610fee57600080fd5b505af1158015611002573d6000803e3d6000fd5b505050506110148a848b8b89896136f7565b5050979650505050505050565b81518351146110835760405162461bcd60e51b815260206004820152602860248201527f455243313135353a2069647320616e6420616d6f756e7473206c656e677468206044820152670dad2e6dac2e8c6d60c31b60648201526084016107bb565b6001600160a01b0384166110a95760405162461bcd60e51b81526004016107bb9061509d565b6001600160a01b0385163314806110c557506110c58533612a59565b61112c5760405162461bcd60e51b815260206004820152603260248201527f455243313135353a207472616e736665722063616c6c6572206973206e6f74206044820152711bdddb995c881b9bdc88185c1c1c9bdd995960721b60648201526084016107bb565b60005b83518110156111ec57600084828151811061114c5761114c6150e2565b60200260200101519050600084838151811061116a5761116a6150e2565b60200260200101519050600080600061118285610800565b9250925092506111938583836137bb565b8360011480156111b457508a6001600160a01b0316836001600160a01b0316145b6111d05760405162461bcd60e51b81526004016107bb906150f8565b6111dc858b8484613864565b505050505080600101905061112f565b50836001600160a01b0316856001600160a01b0316336001600160a01b03167f4a39dc06d4c0dbc64b70af90fd698a233a518aa5d07e595d983b8c0526c8f7fb868660405161123c929190615142565b60405180910390a46112523386868686866138a6565b5050505050565b60006112658585613357565b905061127181846134c1565b6000808061127e84610800565b919450925090506001600160a01b038316158061132d57506040516302571be360e01b81526004810185905230906001600160a01b037f000000000000000000000000000000000000000000000000000000000000000016906302571be390602401602060405180830381865afa1580156112fd573d6000803e3d6000fd5b505050506040513d601f19601f820116820180604052508101906113219190615170565b6001600160a01b031614155b1561134b57604051635374b59960e01b815260040160405180910390fd5b6000806113578a610800565b90935091508a90506113935761136d86336114c7565b61138e57853360405163168ab55d60e31b81526004016107bb929190614f8f565b6113be565b61139d8a336114c7565b6113be57893360405163168ab55d60e31b81526004016107bb929190614f8f565b6113c9868984613a01565b6113d4878483613a3c565b9650620100008416158015906113f857508363ffffffff1688851763ffffffff1614155b156114195760405163a2a7201360e01b8152600481018790526024016107bb565b96831796610ad586868a868b613a82565b60008261143781336114c7565b61145857803360405163168ab55d60e31b81526004016107bb929190614f8f565b836002600061146683610800565b5091505063ffffffff82821616156114945760405163a2a7201360e01b8152600481018490526024016107bb565b600080806114a18a610800565b9250925092506114ba8a84848c61ffff16178485613a82565b5098975050505050505050565b60008080806114d586610800565b925092509250846001600160a01b0316836001600160a01b0316148061095857506109588386612a59565b606081518351146115655760405162461bcd60e51b815260206004820152602960248201527f455243313135353a206163636f756e747320616e6420696473206c656e677468604482015268040dad2e6dac2e8c6d60bb1b60648201526084016107bb565b600083516001600160401b0381111561158057611580614668565b6040519080825280602002602001820160405280156115a9578160200160208202803683370190505b50905060005b8451811015611619576115f48582815181106115cd576115cd6150e2565b60200260200101518583815181106115e7576115e76150e2565b6020026020010151610753565b828281518110611606576116066150e2565b60209081029190910101526001016115af565b509392505050565b6116296132fd565b60405163a9059cbb60e01b81526001600160a01b0383811660048301526024820183905284169063a9059cbb906044016020604051808303816000875af1158015611678573d6000803e3d6000fd5b505050506040513d601f19601f8201168201806040525081019061169c919061518d565b50505050565b60006107fa82613b29565b6000806116ba8585613357565b90506116c581613607565b6116e257604051635374b59960e01b815260040160405180910390fd5b60006116ee86336108fb565b905080158015611705575061170382336114c7565b155b1561172757813360405163168ab55d60e31b81526004016107bb929190614f8f565b6000808061173485610800565b9250925092508315801561174b5750620400008216155b1561176c5760405163a2a7201360e01b8152600481018690526024016107bb565b60006117778a610800565b92505050611786888383613a3c565b97506117948685858b613b3f565b6040516001600160401b038916815286907ff675815a0817338f93a7da433f6bd5f5542f1029b11b455191ac96c7f6a9b1329060200160405180910390a2509598975050505050505050565b6117e86132fd565b6117f26000613b55565b565b61180c6000805160206156cd83398151915284613357565b61181681336114c7565b61183757803360405163168ab55d60e31b81526004016107bb929190614f8f565b306001600160a01b0384160361186b57604051632ca49b0d60e11b81526001600160a01b03841660048201526024016107bb565b61188c6118866000805160206156cd83398151915286613357565b83613ba5565b604051632142170760e11b81523060048201526001600160a01b038481166024830152604482018690527f000000000000000000000000000000000000000000000000000000000000000016906342842e0e90606401600060405180830381600087803b1580156118fc57600080fd5b505af1158015611910573d6000803e3d6000fd5b5050505050505050565b600080868660405161192d9291906151aa565b6040519081900381206331a9108f60e11b82526004820181905291506000907f00000000000000000000000000000000000000000000000000000000000000006001600160a01b031690636352211e90602401602060405180830381865afa15801561199d573d6000803e3d6000fd5b505050506040513d601f19601f820116820180604052508101906119c19190615170565b90506001600160a01b0381163314801590611a69575060405163e985e9c560e01b81526001600160a01b0382811660048301523360248301527f0000000000000000000000000000000000000000000000000000000000000000169063e985e9c590604401602060405180830381865afa158015611a43573d6000803e3d6000fd5b505050506040513d601f19601f82011682018060405250810190611a67919061518d565b155b15611aa257611a866000805160206156cd83398151915283613357565b3360405163168ab55d60e31b81526004016107bb929190614f8f565b6040516323b872dd60e01b81526001600160a01b038281166004830152306024830152604482018490527f000000000000000000000000000000000000000000000000000000000000000016906323b872dd90606401600060405180830381600087803b158015611b1257600080fd5b505af1158015611b26573d6000803e3d6000fd5b5050604051630a3b53db60e21b81526001600160a01b037f00000000000000000000000000000000000000000000000000000000000000001692506328ed4f6c9150611b789085903090600401614f8f565b600060405180830381600087803b158015611b9257600080fd5b505af1158015611ba6573d6000803e3d6000fd5b5050604051636b727d4360e11b8152600481018590526276a70092507f00000000000000000000000000000000000000000000000000000000000000006001600160a01b0316915063d6e4fa8690602401602060405180830381865afa158015611c14573d6000803e3d6000fd5b505050506040513d601f19601f82011682018060405250810190611c38919061500d565b611c42919061503c565b9250611c8b88888080601f0160208091040260200160405190810160405280939291908181526020018383808284376000920191909152508a9250505061ffff881686886131ec565b505095945050505050565b6001600160a01b0382163303611d005760405162461bcd60e51b815260206004820152602960248201527f455243313135353a2073657474696e6720617070726f76616c20737461747573604482015268103337b91039b2b63360b91b60648201526084016107bb565b3360008181526002602090815260408083206001600160a01b03871680855290835292819020805460ff191686151590811790915590519081529192917f17307eab39ab6107e8899845ad3d59bd9653f200f220920489ca2b5937696c31910160405180910390a35050565b3360009081526004602052604081205460ff16611d9b5760405162461bcd60e51b81526004016107bb906151ba565b60008787604051611dad9291906151aa565b604051908190038120633f2891eb60e21b8252600482018190523060248301526044820187905291507f00000000000000000000000000000000000000000000000000000000000000006001600160a01b03169063fca247ac906064016020604051808303816000875af1158015611e29573d6000803e3d6000fd5b505050506040513d601f19601f82011682018060405250810190611e4d919061500d565b9150611ea288888080601f0160208091040260200160405190810160405280939291908181526020018383808284376000920191909152508a9250505061ffff8616611e9c6276a7008761503c565b886131ec565b509695505050505050565b600080611eb984610800565b50841663ffffffff908116908516149250505092915050565b611eda6132fd565b6007546001600160a01b031615611ffa5760075460405163a22cb46560e01b81526001600160a01b039182166004820152600060248201527f00000000000000000000000000000000000000000000000000000000000000009091169063a22cb46590604401600060405180830381600087803b158015611f5a57600080fd5b505af1158015611f6e573d6000803e3d6000fd5b505060075460405163a22cb46560e01b81526001600160a01b039182166004820152600060248201527f0000000000000000000000000000000000000000000000000000000000000000909116925063a22cb4659150604401600060405180830381600087803b158015611fe157600080fd5b505af1158015611ff5573d6000803e3d6000fd5b505050505b600780546001600160a01b0319166001600160a01b038316908117909155156121275760075460405163a22cb46560e01b81526001600160a01b039182166004820152600160248201527f00000000000000000000000000000000000000000000000000000000000000009091169063a22cb46590604401600060405180830381600087803b15801561208c57600080fd5b505af11580156120a0573d6000803e3d6000fd5b505060075460405163a22cb46560e01b81526001600160a01b039182166004820152600160248201527f0000000000000000000000000000000000000000000000000000000000000000909116925063a22cb4659150604401600060405180830381600087803b15801561211357600080fd5b505af1158015611252573d6000803e3d6000fd5b50565b3360009081526004602052604081205460ff166121595760405162461bcd60e51b81526004016107bb906151ba565b60006121736000805160206156cd83398151915285613357565b60405163c475abff60e01b815260048101869052602481018590529091506000906001600160a01b037f0000000000000000000000000000000000000000000000000000000000000000169063c475abff906044016020604051808303816000875af11580156121e7573d6000803e3d6000fd5b505050506040513d601f19601f8201168201806040525081019061220b919061500d565b6040516331a9108f60e11b8152600481018790529091507f00000000000000000000000000000000000000000000000000000000000000006001600160a01b031690636352211e90602401602060405180830381865afa92505050801561228f575060408051601f3d908101601f1916820190925261228c91810190615170565b60015b61229c5791506107fa9050565b6001600160a01b0381163014158061234657506040516302571be360e01b81526004810184905230906001600160a01b037f000000000000000000000000000000000000000000000000000000000000000016906302571be390602401602060405180830381865afa158015612316573d6000803e3d6000fd5b505050506040513d601f19601f8201168201806040525081019061233a9190615170565b6001600160a01b031614155b15612355575091506107fa9050565b5060006123656276a7008361503c565b60008481526001602052604090205490915060a081901c61238885838386613b3f565b50919695505050505050565b6000866123a181336114c7565b6123c257803360405163168ab55d60e31b81526004016107bb929190614f8f565b600087876040516123d49291906151aa565b604051809103902090506123e88982613357565b92506123f48984613383565b6123fe83866134c1565b60006124418a858b8b8080601f0160208091040260200160405190810160405280939291908181526020018383808284376000920191909152506134f492505050565b905061244f8a8588886135c1565b945061245a84613607565b612509576040516306ab592360e01b8152600481018b9052602481018390523060448201527f00000000000000000000000000000000000000000000000000000000000000006001600160a01b0316906306ab5923906064016020604051808303816000875af11580156124d2573d6000803e3d6000fd5b505050506040513d601f19601f820116820180604052508101906124f6919061500d565b506125048482898989613c95565b61254f565b61254f8a858b8b8080601f0160208091040260200160405190810160405280939291908181526020018383808284376000920191909152508d92508c91508b90506136f7565b5050509695505050505050565b60006125a2600086868080601f0160208091040260200160405190810160405280939291908181526020018383808284376000920191909152509293925050613cd79050565b6007549091506001600160a01b03166125ce5760405163093075b560e21b815260040160405180910390fd5b6125d881336114c7565b6125f957803360405163168ab55d60e31b81526004016107bb929190614f8f565b6000808061260684610800565b91945092509050600061261885610870565b905061262385613d96565b600760009054906101000a90046001600160a01b03166001600160a01b0316639198c2768a8a878787878e8e6040518963ffffffff1660e01b815260040161267298979695949392919061522b565b600060405180830381600087803b15801561268c57600080fd5b505af11580156126a0573d6000803e3d6000fd5b50505050505050505050505050565b836126ba81336114c7565b6126db57803360405163168ab55d60e31b81526004016107bb929190614f8f565b84601c60006126e983610800565b5091505063ffffffff82821616156127175760405163a2a7201360e01b8152600481018490526024016107bb565b60405163cf40882360e01b8152600481018990523060248201526001600160a01b0387811660448301526001600160401b03871660648301527f0000000000000000000000000000000000000000000000000000000000000000169063cf40882390608401600060405180830381600087803b15801561279657600080fd5b505af11580156127aa573d6000803e3d6000fd5b5050506001600160a01b03881690506128115760006127c889610800565b509150506201ffff196202000082160161280057604051632ca49b0d60e11b81526001600160a01b03891660048201526024016107bb565b61280b896000613ba5565b50611910565b600061281c896116a2565b905061283e81898b60001c600160405180602001604052806000815250613e36565b505050505050505050565b6128538383613357565b61285d81336114c7565b61287e57803360405163168ab55d60e31b81526004016107bb929190614f8f565b7f6c32148f748aba23997146d7fe89e962e3cc30271290fb96f5f4337756c03b5284016128be5760405163615a470360e01b815260040160405180910390fd5b6001600160a01b03821615806128dc57506001600160a01b03821630145b1561290557604051632ca49b0d60e11b81526001600160a01b03831660048201526024016107bb565b61169c6118868585613357565b60008061291f8484613357565b9050600061292c82613607565b90506000805160206156cd833981519152851461294c5791506107fa9050565b6040516331a9108f60e11b8152600481018590527f00000000000000000000000000000000000000000000000000000000000000006001600160a01b031690636352211e90602401602060405180830381865afa9250505080156129cd575060408051601f3d908101601f191682019092526129ca91810190615170565b60015b6129dc576000925050506107fa565b6001600160a01b0316301492506107fa915050565b6129f96132fd565b6001600160a01b038216600081815260046020908152604091829020805460ff191685151590811790915591519182527f4c97694570a07277810af7e5669ffd5f6a2d6b74b6e9a274b8b870fd5114cf8791015b60405180910390a25050565b6001600160a01b03918216600090815260026020908152604080832093909416825291909152205460ff1690565b600080612ace600087878080601f0160208091040260200160405190810160405280939291908181526020018383808284376000920191909152509293925050613f189050565b915091506000612b178288888080601f0160208091040260200160405190810160405280939291908181526020018383808284376000920191909152509293925050613cd79050565b90506000612b258285613357565b6000818152600660205260409020909150612b41888a836152db565b507f6c32148f748aba23997146d7fe89e962e3cc30271290fb96f5f4337756c03b528201612b825760405163615a470360e01b815260040160405180910390fd5b6040516302571be360e01b8152600481018290526000907f00000000000000000000000000000000000000000000000000000000000000006001600160a01b0316906302571be390602401602060405180830381865afa158015612bea573d6000803e3d6000fd5b505050506040513d601f19601f82011682018060405250810190612c0e9190615170565b90506001600160a01b0381163314801590612cb6575060405163e985e9c560e01b81526001600160a01b0382811660048301523360248301527f0000000000000000000000000000000000000000000000000000000000000000169063e985e9c590604401602060405180830381865afa158015612c90573d6000803e3d6000fd5b505050506040513d601f19601f82011682018060405250810190612cb4919061518d565b155b15612cd857813360405163168ab55d60e31b81526004016107bb929190614f8f565b6001600160a01b03861615612d6857604051630c4b7b8560e11b81526001600160a01b037f00000000000000000000000000000000000000000000000000000000000000001690631896f70a90612d359085908a90600401614f8f565b600060405180830381600087803b158015612d4f57600080fd5b505af1158015612d63573d6000803e3d6000fd5b505050505b604051635b0fc9c360e01b81526001600160a01b037f00000000000000000000000000000000000000000000000000000000000000001690635b0fc9c390612db69085903090600401614f8f565b600060405180830381600087803b158015612dd057600080fd5b505af1158015612de4573d6000803e3d6000fd5b5050505061283e828a8a8080601f01602080910402602001604051908101604052809392919081815260200183838082843760009201829052508d93509150819050613c95565b6001600160a01b038416612e515760405162461bcd60e51b81526004016107bb9061509d565b6001600160a01b038516331480612e6d5750612e6d8533612a59565b612ecb5760405162461bcd60e51b815260206004820152602960248201527f455243313135353a2063616c6c6572206973206e6f74206f776e6572206e6f7260448201526808185c1c1c9bdd995960ba1b60648201526084016107bb565b6112528585858585613e36565b612ee06132fd565b6001600160a01b038116612f455760405162461bcd60e51b815260206004820152602660248201527f4f776e61626c653a206e6577206f776e657220697320746865207a65726f206160448201526564647265737360d01b60648201526084016107bb565b61212781613b55565b60008181526006602052604081208054829190612f6a90615063565b80601f0160208091040260200160405190810160405280929190818152602001828054612f9690615063565b8015612fe35780601f10612fb857610100808354040283529160200191612fe3565b820191906000526020600020905b815481529060010190602001808311612fc657829003601f168201915b505050505090508051600003612ffc5750600092915050565b6000806130098382613f18565b9092509050600061301a8483613cd7565b905061096b8184612912565b60008042836001600160401b031610156130535761ffff196201000085160161304e57600094505b600093505b50929391925050565b60006001600160e01b03198216636cdb3d1360e11b148061308d57506001600160e01b031982166303a24d0760e21b145b806107fa57506301ffc9a760e01b6001600160e01b03198316146107fa565b60006130b7826116a2565b9050806001600160a01b0316836001600160a01b0316036131245760405162461bcd60e51b815260206004820152602160248201527f4552433732313a20617070726f76616c20746f2063757272656e74206f776e656044820152603960f91b60648201526084016107bb565b336001600160a01b038216148061314057506131408133612a59565b6131b25760405162461bcd60e51b815260206004820152603d60248201527f4552433732313a20617070726f76652063616c6c6572206973206e6f7420746f60448201527f6b656e206f776e6572206f7220617070726f76656420666f7220616c6c00000060648201526084016107bb565b6108f68383613fcf565b6000620200008381161480156108ae5750426131db6276a7008461539a565b6001600160401b0316109392505050565b84516020860120600061320d6000805160206156cd83398151915283613357565b9050600061323688604051806040016040528060058152602001626cae8d60e31b81525061403d565b600083815260066020526040902090915061325182826153ba565b50613264828289620300008a1789613c95565b6001600160a01b0384161561191057604051630c4b7b8560e11b81526001600160a01b037f00000000000000000000000000000000000000000000000000000000000000001690631896f70a906132c19085908890600401614f8f565b600060405180830381600087803b1580156132db57600080fd5b505af11580156132ef573d6000803e3d6000fd5b505050505050505050505050565b6000546001600160a01b031633146117f25760405162461bcd60e51b815260206004820181905260248201527f4f776e61626c653a2063616c6c6572206973206e6f7420746865206f776e657260448201526064016107bb565b604080516020808201949094528082019290925280518083038201815260609092019052805191012090565b6000808061339084610800565b91945092509050426001600160401b0382161080801561345357506001600160a01b038416158061345357506040516302571be360e01b8152600481018690526000906001600160a01b037f000000000000000000000000000000000000000000000000000000000000000016906302571be390602401602060405180830381865afa158015613424573d6000803e3d6000fd5b505050506040513d601f19601f820116820180604052508101906134489190615170565b6001600160a01b0316145b1561349257600061346387610800565b50915050602081161561348c5760405163a2a7201360e01b8152600481018790526024016107bb565b506134b9565b620100008316156134b95760405163a2a7201360e01b8152600481018690526024016107bb565b505050505050565b63fffdffff81811763ffffffff16146134f05760405163a2a7201360e01b8152600481018390526024016107bb565b5050565b6060600061359d8360066000888152602001908152602001600020805461351a90615063565b80601f016020809104026020016040519081016040528092919081815260200182805461354690615063565b80156135935780601f1061356857610100808354040283529160200191613593565b820191906000526020600020905b81548152906001019060200180831161357657829003601f168201915b505050505061403d565b60008581526006602052604090209091506135b882826153ba565b50949350505050565b6000806135cd85610800565b925050506000806135e08860001c610800565b92509250506135f0878784613a01565b6135fb858483613a3c565b98975050505050505050565b600080613613836116a2565b6001600160a01b0316141580156107fa57506040516302571be360e01b81526004810183905230906001600160a01b037f000000000000000000000000000000000000000000000000000000000000000016906302571be390602401602060405180830381865afa15801561368c573d6000803e3d6000fd5b505050506040513d601f19601f820116820180604052508101906136b09190615170565b6001600160a01b03161492915050565b600086815260066020526040812080546136df91879161351a90615063565b90506136ee8682868686613c95565b50505050505050565b6000808061370488610800565b925092509250600061372e88600660008d8152602001908152602001600020805461351a90615063565b60008a815260066020526040902080549192509061374b90615063565b905060000361376e57600089815260066020526040902061376c82826153ba565b505b61377d89858886178589613a82565b6001600160a01b03871661379b57613796896000613ba5565b610ad5565b610ad584888b60001c600160405180602001604052806000815250613e36565b6201ffff19620200008316016137db576137d86276a7008261539a565b90505b42816001600160401b03161015613814576201000082161561380f5760405162461bcd60e51b81526004016107bb906150f8565b613839565b60048216156138395760405163a2a7201360e01b8152600481018490526024016107bb565b604082166000036108f6575050600090815260036020526040902080546001600160a01b0319169055565b60c0816001600160401b0316901b60a08363ffffffff16901b846001600160a01b03161717600160008681526020019081526020016000208190555050505050565b6001600160a01b0384163b156134b95760405163bc197c8160e01b81526001600160a01b0385169063bc197c81906138ea9089908990889088908890600401615479565b6020604051808303816000875af1925050508015613925575060408051601f3d908101601f19168201909252613922918101906154cb565b60015b6139d1576139316154e8565b806308c379a00361396a5750613945615504565b80613950575061396c565b8060405162461bcd60e51b81526004016107bb9190614506565b505b60405162461bcd60e51b815260206004820152603460248201527f455243313135353a207472616e7366657220746f206e6f6e20455243313135356044820152732932b1b2b4bb32b91034b6b83632b6b2b73a32b960611b60648201526084016107bb565b6001600160e01b0319811663bc197c8160e01b146136ee5760405162461bcd60e51b81526004016107bb9061558d565b63ffff00008216158015906001831615908290613a1b5750805b156112525760405163a2a7201360e01b8152600481018690526024016107bb565b6000816001600160401b0316846001600160401b03161115613a5c578193505b826001600160401b0316846001600160401b03161015613a7a578293505b509192915050565b613a8e85858584613b3f565b60405163ffffffff8416815285907f39873f00c80f4f94b7bd1594aebcf650f003545b74824d57ddf4939e3ff3a34b9060200160405180910390a2816001600160401b0316816001600160401b03161115611252576040516001600160401b038216815285907ff675815a0817338f93a7da433f6bd5f5542f1029b11b455191ac96c7f6a9b132906020015b60405180910390a25050505050565b600080613b3583610800565b5090949350505050565b613b4984836140b4565b61169c84848484613864565b600080546001600160a01b038381166001600160a01b0319831681178455604051919092169283917f8be0079c531659141344cd1fd0a4f28419497f9722a3daafe3b4186f6b6457e09190a35050565b613bb0826001611ead565b15613bd15760405163a2a7201360e01b8152600481018390526024016107bb565b613bda82613d96565b604051635b0fc9c360e01b81526001600160a01b037f00000000000000000000000000000000000000000000000000000000000000001690635b0fc9c390613c289085908590600401614f8f565b600060405180830381600087803b158015613c4257600080fd5b505af1158015613c56573d6000803e3d6000fd5b50506040516001600160a01b03841681528492507fee2ba1195c65bcf218a83d874335c6bf9d9067b4c672f3c3bf16cf40de7586c49150602001612a4d565b613ca1858484846140ed565b847f8ce7013e8abebc55c3890a68f5a27c67c3f7efa64e584de5fb22363c606fd34085858585604051613b1a94939291906155d5565b6000806000613ce68585613f18565b909250905081613d585760018551613cfe919061561c565b8414613d4c5760405162461bcd60e51b815260206004820152601d60248201527f6e616d65686173683a204a756e6b20617420656e64206f66206e616d6500000060448201526064016107bb565b50600091506107fa9050565b613d628582613cd7565b6040805160208101929092528101839052606001604051602081830303815290604052805190602001209250505092915050565b60008181526001602052604090205460a081901c60c082901c613dba838383613026565b600086815260036020526040812080546001600160a01b0319169055909350613de7915085908484613864565b60408051858152600160208201526000916001600160a01b0386169133917fc3d58168c5ae7397731d063d5bbf3d657854427343f4c083240f7aacaa2d0f62910160405180910390a450505050565b6000806000613e4486610800565b925092509250613e558683836137bb565b846001148015613e765750876001600160a01b0316836001600160a01b0316145b613e925760405162461bcd60e51b81526004016107bb906150f8565b866001600160a01b0316836001600160a01b031603613eb357505050611252565b613ebf86888484613864565b60408051878152602081018790526001600160a01b03808a1692908b169133917fc3d58168c5ae7397731d063d5bbf3d657854427343f4c083240f7aacaa2d0f62910160405180910390a4611910338989898989614161565b60008083518310613f6b5760405162461bcd60e51b815260206004820152601e60248201527f726561644c6162656c3a20496e646578206f7574206f6620626f756e6473000060448201526064016107bb565b6000848481518110613f7f57613f7f6150e2565b016020015160f81c90508015613fab57613fa485613f9e86600161562f565b8361421c565b9250613fb0565b600092505b613fba818561562f565b613fc590600161562f565b9150509250929050565b600081815260036020526040902080546001600160a01b0319166001600160a01b0384169081179091558190614004826116a2565b6001600160a01b03167f8c5be1e5ebec7d5bd14f71427d1e84f3dd0314c0f7b2291e5b200ac8c7c3b92560405160405180910390a45050565b606060018351101561406257604051631406d65b60e11b815260040160405180910390fd5b60ff83511115614087578260405163e3ba295f60e01b81526004016107bb9190614506565b8251838360405160200161409d93929190615642565b604051602081830303815290604052905092915050565b61ffff8116158015906140cc57506201000181811614155b156134f05760405163a2a7201360e01b8152600481018390526024016107bb565b6140f784836140b4565b6000848152600160205260409020546001600160a01b038116156141555761411e85613d96565b6040516000815285907fee2ba1195c65bcf218a83d874335c6bf9d9067b4c672f3c3bf16cf40de7586c49060200160405180910390a25b61125285858585614240565b6001600160a01b0384163b156134b95760405163f23a6e6160e01b81526001600160a01b0385169063f23a6e61906141a59089908990889088908890600401615687565b6020604051808303816000875af19250505080156141e0575060408051601f3d908101601f191682019092526141dd918101906154cb565b60015b6141ec576139316154e8565b6001600160e01b0319811663f23a6e6160e01b146136ee5760405162461bcd60e51b81526004016107bb9061558d565b825160009061422b838561562f565b111561423657600080fd5b5091016020012090565b836000808061424e84610800565b9194509250905063ffff000082166001600160401b038087169083161115614274578195505b42826001600160401b03161061428957958617955b6001600160a01b038416156142e05760405162461bcd60e51b815260206004820152601f60248201527f455243313135353a206d696e74206f66206578697374696e6720746f6b656e0060448201526064016107bb565b6001600160a01b0388166143405760405162461bcd60e51b815260206004820152602160248201527f455243313135353a206d696e7420746f20746865207a65726f206164647265736044820152607360f81b60648201526084016107bb565b306001600160a01b038916036143b55760405162461bcd60e51b815260206004820152603460248201527f455243313135353a206e65774f776e65722063616e6e6f74206265207468652060448201527313985b5955dc985c1c195c8818dbdb9d1c9858dd60621b60648201526084016107bb565b6143c185898989613864565b60408051868152600160208201526001600160a01b038a169160009133917fc3d58168c5ae7397731d063d5bbf3d657854427343f4c083240f7aacaa2d0f62910160405180910390a461283e3360008a88600160405180602001604052806000815250614161565b6001600160a01b038116811461212757600080fd5b6000806040838503121561445157600080fd5b823561445c81614429565b946020939093013593505050565b60006020828403121561447c57600080fd5b5035919050565b6001600160e01b03198116811461212757600080fd5b6000602082840312156144ab57600080fd5b81356108ae81614483565b60005b838110156144d15781810151838201526020016144b9565b50506000910152565b600081518084526144f28160208601602086016144b6565b601f01601f19169290920160200192915050565b6020815260006108ae60208301846144da565b6000806040838503121561452c57600080fd5b82359150602083013561453e81614429565b809150509250929050565b80356001600160401b038116811461456057600080fd5b919050565b6000806040838503121561457857600080fd5b8235915061458860208401614549565b90509250929050565b60008083601f8401126145a357600080fd5b5081356001600160401b038111156145ba57600080fd5b6020830191508360208285010111156145d257600080fd5b9250929050565b6000806000806000608086880312156145f157600080fd5b85356145fc81614429565b9450602086013561460c81614429565b93506040860135925060608601356001600160401b0381111561462e57600080fd5b61463a88828901614591565b969995985093965092949392505050565b60006020828403121561465d57600080fd5b81356108ae81614429565b634e487b7160e01b600052604160045260246000fd5b601f8201601f191681016001600160401b03811182821017156146a3576146a3614668565b6040525050565b60006001600160401b038211156146c3576146c3614668565b50601f01601f191660200190565b600082601f8301126146e257600080fd5b81356146ed816146aa565b6040516146fa828261467e565b82815285602084870101111561470f57600080fd5b82602086016020830137600092810160200192909252509392505050565b803563ffffffff8116811461456057600080fd5b600080600080600080600060e0888a03121561475c57600080fd5b8735965060208801356001600160401b0381111561477957600080fd5b6147858a828b016146d1565b965050604088013561479681614429565b945060608801356147a681614429565b93506147b460808901614549565b92506147c260a0890161472d565b91506147d060c08901614549565b905092959891949750929550565b60006001600160401b038211156147f7576147f7614668565b5060051b60200190565b600082601f83011261481257600080fd5b8135602061481f826147de565b60405161482c828261467e565b80915083815260208101915060208460051b87010193508684111561485057600080fd5b602086015b84811015611ea25780358352918301918301614855565b600080600080600060a0868803121561488457600080fd5b853561488f81614429565b9450602086013561489f81614429565b935060408601356001600160401b03808211156148bb57600080fd5b6148c789838a01614801565b945060608801359150808211156148dd57600080fd5b6148e989838a01614801565b935060808801359150808211156148ff57600080fd5b5061490c888289016146d1565b9150509295509295909350565b6000806000806080858703121561492f57600080fd5b84359350602085013592506149466040860161472d565b915061495460608601614549565b905092959194509250565b803561ffff8116811461456057600080fd5b6000806040838503121561498457600080fd5b823591506145886020840161495f565b600080604083850312156149a757600080fd5b82356001600160401b03808211156149be57600080fd5b818501915085601f8301126149d257600080fd5b813560206149df826147de565b6040516149ec828261467e565b83815260059390931b8501820192828101915089841115614a0c57600080fd5b948201945b83861015614a33578535614a2481614429565b82529482019490820190614a11565b96505086013592505080821115614a4957600080fd5b50613fc585828601614801565b60008151808452602080850194506020840160005b83811015614a8757815187529582019590820190600101614a6b565b509495945050505050565b6020815260006108ae6020830184614a56565b600080600060608486031215614aba57600080fd5b8335614ac581614429565b92506020840135614ad581614429565b929592945050506040919091013590565b600080600060608486031215614afb57600080fd5b8335925060208401359150614b1260408501614549565b90509250925092565b600080600060608486031215614b3057600080fd5b833592506020840135614b4281614429565b91506040840135614b5281614429565b809150509250925092565b600080600080600060808688031215614b7557600080fd5b85356001600160401b03811115614b8b57600080fd5b614b9788828901614591565b9096509450506020860135614bab81614429565b9250614bb96040870161495f565b91506060860135614bc981614429565b809150509295509295909350565b801515811461212757600080fd5b60008060408385031215614bf857600080fd5b8235614c0381614429565b9150602083013561453e81614bd7565b60008060008060008060a08789031215614c2c57600080fd5b86356001600160401b03811115614c4257600080fd5b614c4e89828a01614591565b9097509550506020870135614c6281614429565b9350604087013592506060870135614c7981614429565b9150614c876080880161495f565b90509295509295509295565b60008060408385031215614ca657600080fd5b823591506145886020840161472d565b60008060408385031215614cc957600080fd5b50508035926020909101359150565b60008060008060008060a08789031215614cf157600080fd5b8635955060208701356001600160401b03811115614d0e57600080fd5b614d1a89828a01614591565b9096509450506040870135614d2e81614429565b9250614d3c6060880161472d565b9150614c8760808801614549565b60008060008060408587031215614d6057600080fd5b84356001600160401b0380821115614d7757600080fd5b614d8388838901614591565b90965094506020870135915080821115614d9c57600080fd5b50614da987828801614591565b95989497509550505050565b60008060008060808587031215614dcb57600080fd5b843593506020850135614ddd81614429565b9250604085013561494681614429565b600080600060608486031215614e0257600080fd5b83359250602084013591506040840135614b5281614429565b60008060408385031215614e2e57600080fd5b8235614e3981614429565b9150602083013561453e81614429565b60008060008060608587031215614e5f57600080fd5b84356001600160401b03811115614e7557600080fd5b614e8187828801614591565b9095509350506020850135614e9581614429565b91506040850135614ea581614429565b939692955090935050565b600080600080600060a08688031215614ec857600080fd5b8535614ed381614429565b94506020860135614ee381614429565b9350604086013592506060860135915060808601356001600160401b03811115614f0c57600080fd5b61490c888289016146d1565b600060208284031215614f2a57600080fd5b81516001600160401b03811115614f4057600080fd5b8201601f81018413614f5157600080fd5b8051614f5c816146aa565b604051614f69828261467e565b828152866020848601011115614f7e57600080fd5b61096b8360208301602087016144b6565b9182526001600160a01b0316602082015260400190565b60008060008060808587031215614fbc57600080fd5b84356001600160401b03811115614fd257600080fd5b614fde878288016146d1565b9450506020850135614fef81614429565b9250614ffd6040860161495f565b91506060850135614ea581614429565b60006020828403121561501f57600080fd5b5051919050565b634e487b7160e01b600052601160045260246000fd5b6001600160401b0381811683821601908082111561505c5761505c615026565b5092915050565b600181811c9082168061507757607f821691505b60208210810361509757634e487b7160e01b600052602260045260246000fd5b50919050565b60208082526025908201527f455243313135353a207472616e7366657220746f20746865207a65726f206164604082015264647265737360d81b606082015260800190565b634e487b7160e01b600052603260045260246000fd5b6020808252602a908201527f455243313135353a20696e73756666696369656e742062616c616e636520666f60408201526939103a3930b739b332b960b11b606082015260800190565b6040815260006151556040830185614a56565b82810360208401526151678185614a56565b95945050505050565b60006020828403121561518257600080fd5b81516108ae81614429565b60006020828403121561519f57600080fd5b81516108ae81614bd7565b8183823760009101908152919050565b60208082526028908201527f436f6e74726f6c6c61626c653a2043616c6c6572206973206e6f74206120636f604082015267373a3937b63632b960c11b606082015260800190565b81835281816020850137506000828201602090810191909152601f909101601f19169091010190565b60c08152600061523f60c083018a8c615202565b6001600160a01b03898116602085015263ffffffff891660408501526001600160401b03881660608501528616608084015282810360a0840152615284818587615202565b9b9a5050505050505050505050565b601f8211156108f6576000816000526020600020601f850160051c810160208610156152bc5750805b601f850160051c820191505b818110156134b9578281556001016152c8565b6001600160401b038311156152f2576152f2614668565b615306836153008354615063565b83615293565b6000601f84116001811461533a57600085156153225750838201355b600019600387901b1c1916600186901b178355611252565b600083815260209020601f19861690835b8281101561536b578685013582556020948501946001909201910161534b565b50868210156153885760001960f88860031b161c19848701351681555b505060018560011b0183555050505050565b6001600160401b0382811682821603908082111561505c5761505c615026565b81516001600160401b038111156153d3576153d3614668565b6153e7816153e18454615063565b84615293565b602080601f83116001811461541c57600084156154045750858301515b600019600386901b1c1916600185901b1785556134b9565b600085815260208120601f198616915b8281101561544b5788860151825594840194600190910190840161542c565b50858210156154695787850151600019600388901b60f8161c191681555b5050505050600190811b01905550565b6001600160a01b0386811682528516602082015260a0604082018190526000906154a590830186614a56565b82810360608401526154b78186614a56565b905082810360808401526135fb81856144da565b6000602082840312156154dd57600080fd5b81516108ae81614483565b600060033d11156155015760046000803e5060005160e01c5b90565b600060443d10156155125790565b6040516003193d81016004833e81513d6001600160401b03816024840111818411171561554157505050505090565b82850191508151818111156155595750505050505090565b843d87010160208285010111156155735750505050505090565b6155826020828601018761467e565b509095945050505050565b60208082526028908201527f455243313135353a204552433131353552656365697665722072656a656374656040820152676420746f6b656e7360c01b606082015260800190565b6080815260006155e860808301876144da565b6001600160a01b039590951660208301525063ffffffff9290921660408301526001600160401b0316606090910152919050565b818103818111156107fa576107fa615026565b808201808211156107fa576107fa615026565b60ff60f81b8460f81b168152600083516156638160018501602088016144b6565b83519083019061567a8160018401602088016144b6565b0160010195945050505050565b6001600160a01b03868116825285166020820152604081018490526060810183905260a0608082018190526000906156c1908301846144da565b97965050505050505056fe93cdeb708b7545dc668eb9280176169d1c33cfd8ed6f04690a0bcc88a93fc4aea26469706673582212209b25a259ef8986d46a1bfe17671970399728db343863f016912d8beb240746b064736f6c63430008170033","linkReferences":{}},"methodIdentifiers":{"_tokens(uint256)":"ed70554d","allFusesBurned(bytes32,uint32)":"adf4960a","approve(address,uint256)":"095ea7b3","balanceOf(address,uint256)":"00fdd58e","balanceOfBatch(address[],uint256[])":"4e1273f4","canExtendSubnames(bytes32,address)":"0e4cd725","canModifyName(bytes32,address)":"41415eab","controllers(address)":"da8c229e","ens()":"3f15457f","extendExpiry(bytes32,bytes32,uint64)":"6e5d6ad2","getApproved(uint256)":"081812fc","getData(uint256)":"0178fe3f","isApprovedForAll(address,address)":"e985e9c5","isWrapped(bytes32)":"fd0cd0d9","isWrapped(bytes32,bytes32)":"d9a50c12","metadataService()":"53095467","name()":"06fdde03","names(bytes32)":"20c38e2b","onERC721Received(address,address,uint256,bytes)":"150b7a02","owner()":"8da5cb5b","ownerOf(uint256)":"6352211e","recoverFunds(address,address,uint256)":"5d3590d5","registerAndWrapETH2LD(string,address,uint256,address,uint16)":"a4014982","registrar()":"2b20e397","renew(uint256,uint256)":"c475abff","renounceOwnership()":"715018a6","safeBatchTransferFrom(address,address,uint256[],uint256[],bytes)":"2eb2c2d6","safeTransferFrom(address,address,uint256,uint256,bytes)":"f242432a","setApprovalForAll(address,bool)":"a22cb465","setChildFuses(bytes32,bytes32,uint32,uint64)":"33c69ea9","setController(address,bool)":"e0dba60f","setFuses(bytes32,uint16)":"402906fc","setMetadataService(address)":"1534e177","setRecord(bytes32,address,address,uint64)":"cf408823","setResolver(bytes32,address)":"1896f70a","setSubnodeOwner(bytes32,string,address,uint32,uint64)":"c658e086","setSubnodeRecord(bytes32,string,address,address,uint64,uint32,uint64)":"24c1af44","setTTL(bytes32,uint64)":"14ab9038","setUpgradeContract(address)":"b6bcad26","supportsInterface(bytes4)":"01ffc9a7","transferOwnership(address)":"f2fde38b","unwrap(bytes32,bytes32,address)":"d8c9921a","unwrapETH2LD(bytes32,address,address)":"8b4dfa75","upgrade(bytes,bytes)":"c93ab3fd","upgradeContract()":"1f4e1504","uri(uint256)":"0e89341c","wrap(bytes,address,address)":"eb8ae530","wrapETH2LD(string,address,uint16,address)":"8cf8b41e"},"id":100}